:020000040000FA
:1000000000040020810A000015070000610A0000BA
:100010001F07000029070000330700000000000050
:10002000000000000000000000000000A50A000021
:100030003D070000000000004707000051070000D6
:100040005B070000650700006F07000079070000EC
:10005000830700008D07000097070000A10700003C
:10006000AB070000B5070000BF070000C90700008C
:10007000D3070000DD070000E7070000F1070000DC
:10008000FB070000050800000F0800001908000029
:10009000230800002D080000370800004108000078
:1000A0004B080000550800005F08000069080000C8
:1000B000730800007D080000870800009108000018
:1000C0009B080000A5080000AF080000B908000068
:1000D000C3080000CD080000D7080000E1080000B8
:1000E000EB080000F5080000FF0800000909000007
:1000F000130900001D090000270900003109000054
:100100003B0900001FB500F003F88DE80F001FBD8C
:1001100000F0ACBC40F6FC7108684FF01022401CA7
:1001200008D00868401C09D00868401C04D0086842
:1001300000F037BA9069F5E79069F9E7704770B554
:100140000B46010B184400F6FF70040B4FF0805073
:100150000022090303692403406943431D1B104621
:1001600000F048FA29462046BDE8704000F042BA47
:10017000F0B54FF6FF734FF4B4751A466E1E11E0DA
:10018000A94201D3344600E00C46091B30F8027B3B
:10019000641E3B441A44F9D19CB204EB134394B25D
:1001A00004EB12420029EBD198B200EB134002EBB2
:1001B000124140EA0140F0BDF34992B00446D1E952
:1001C0000001CDE91001FF224021684600F0F4FB58
:1001D00094E80F008DE80F00684610A902E004C8FB
:1001E00041F8042D8842FAD110216846FFF7C0FF7C
:1001F0001090AA208DF8440000F099F9FFF78AFFCB
:1002000040F6FC7420684FF01025401C0FD0206889
:1002100010226946803000F078F92068401C08D030
:100220002068082210A900F070F900F061F9A869AF
:10023000EEE7A869F5E74FF080500369406940F6A2
:10024000FC71434308684FF01022401C06D0086838
:1002500000F58050834203D2092070479069F7E788
:100260000868401C04D00868401C03D00020704778
:100270009069F9E70420704770B504460068C34DE3
:10028000072876D2DFE800F033041929631E250021
:10029000D4E9026564682946304600F062F92A46CE
:1002A0002146304600F031F9AA002146304600F0E0
:1002B00057FB002800D0032070BD00F009FC4FF46C
:1002C000805007E0201D00F040F90028F4D100F034
:1002D000FFFB60682860002070BD241D94E80700C3
:1002E000920000F03DFB0028F6D00E2070BDFFF715
:1002F000A2FF0028FAD1D4E901034FF0805100EBAE
:10030000830208694D69684382420ED840F6F8704E
:1003100005684FF010226D1C09D0056805EB8305B8
:100320000B6949694B439D4203D9092070BD55694A
:10033000F4E70168491C03D00068401C02D003E0C8
:100340005069FAE70F2070BD2046FFF735FFFFF731
:1003500072FF0028F7D1201D00F0F7F80028F2D135
:1003600060680028F0D100F0E2F8FFF7D3FE00F05B
:10037000BFF8072070BD10B50C46182802D0012028
:10038000086010BD2068FFF777FF206010BD41684E
:10039000054609B1012700E0002740F6F8742068FF
:1003A0004FF01026401C2BD02068AA68920000F065
:1003B000D7FA38B3A86881002068401C27D020688D
:1003C000FFF7BDFED7B12068401C22D026684FF051
:1003D0008050AC686D68016942695143A9420DD9EA
:1003E000016940694143A14208D92146304600F0E5
:1003F000B8F822462946304600F087F800F078F831
:100400007069D2E700F093F8FFF784FEF6E77069B1
:10041000D6E77669DBE740F6FC7420684FF01026DB
:10042000401C23D02068401C0CD02068401C1FD0EA
:100430002568206805F18005401C1BD027683879A5
:10044000AA2819D040F6F8700168491C42D001680A
:10045000491C45D00168491C3ED001680968491C07
:100460003ED00168491C39D000683EE0B069DAE747
:10047000B569DEE7B769E2E710212846FFF778FEA5
:100480003968814222D12068401C05D0D4F8001080
:1004900001F18002C03107E0B169F9E730B108CA63
:1004A00051F8040D984201D1012000E000208A4259
:1004B000F4D158B1286810B1042803D0FEE72846CB
:1004C000FFF765FF3149686808600EE0FFF722FE1C
:1004D00000F00EF87169BBE77169BFE7706904E06D
:1004E0004FF480500168491C01D000F0CBFAFEE7C0
:1004F000BFF34F8F26480168264A01F4E06111439B
:100500000160BFF34F8F00BFFDE72DE9F0411746B3
:100510000D460646002406E03046296800F054F8EF
:10052000641C2D1D361DBC42F6D3BDE8F08140F69B
:10053000FC700168491C04D0D0F800004FF48051D1
:10054000FDE54FF010208069F8E74FF080510A690F
:10055000496900684A43824201D810207047002050
:10056000704770B50C4605464FF4806608E0284693
:1005700000F017F8B44205D3A4F5806405F5805562
:10058000002CF4D170BD0000F40A0000000000202F
:100590000CED00E00400FA05144801680029FCD0C5
:1005A0007047134A0221116010490B68002BFCD0E0
:1005B0000F4B1B1D186008680028FCD0002010603D
:1005C00008680028FCD07047094B10B501221A605A
:1005D000064A1468002CFCD0016010680028FCD08A
:1005E0000020186010680028FCD010BD00E4014015
:1005F00004E5014070B50C46054600F073F810B9EB
:1006000000F07EF828B121462846BDE8704000F091
:1006100007B821462846BDE8704000F037B8000012
:100620007FB5002200920192029203920A0B000B06
:100630006946012302440AE0440900F01F0651F80C
:10064000245003FA06F6354341F82450401C8242F8
:10065000F2D80D490868009A10430860081D016827
:10066000019A1143016000F03DF800280AD00649C4
:1006700010310868029A10430860091D0868039A3F
:10068000104308607FBD00000006004030B50F4CED
:10069000002200BF04EB0213D3F800582DB9D3F8A1
:1006A000045815B9D3F808581DB1521C082AF1D3C3
:1006B00030BD082AFCD204EB0212C2F80008C3F8CD
:1006C00004180220C3F8080830BD000000E0014013
:1006D0004FF08050D0F83001082801D0002070473A
:1006E000012070474FF08050D0F83011062905D016
:1006F000D0F83001401C01D0002070470120704725
:100700004FF08050D0F830010A2801D00020704707
:100710000120704708208F490968095808471020B0
:100720008C4909680958084714208A4909680958FA
:100730000847182087490968095808473020854923
:100740000968095808473820824909680958084744
:100750003C20804909680958084740207D490968BC
:100760000958084744207B49096809580847482028
:1007700078490968095808474C207649096809589A
:10078000084750207349096809580847542071499F
:1007900009680958084758206E49096809580847E8
:1007A0005C206C4909680958084760206949096854
:1007B00009580847642067490968095808476820AC
:1007C00064490968095808476C2062490968095852
:1007D000084770205F4909680958084774205D4937
:1007E00009680958084778205A490968095808478C
:1007F0007C205849096809580847802055490968EC
:10080000095808478420534909680958084788202F
:1008100050490968095808478C204E490968095809
:10082000084790204B4909680958084794204949CE
:10083000096809580847982046490968095808472F
:100840009C204449096809580847A0204149096883
:1008500009580847A4203F49096809580847A820B3
:100860003C49096809580847AC203A4909680958C1
:100870000847B0203749096809580847B420354966
:10088000096809580847B8203249096809580847D3
:10089000BC203049096809580847C0202D4909681B
:1008A00009580847C4202B49096809580847C82037
:1008B0002849096809580847CC2026490968095879
:1008C0000847D0202349096809580847D4202149FE
:1008D000096809580847D8201E4909680958084777
:1008E000DC201C49096809580847E02019490968B3
:1008F00009580847E4201749096809580847E820BB
:100900001449096809580847EC2012490968095830
:100910000847F0200F49096809580847F4200D4995
:10092000096809580847F8200A490968095808471A
:10093000FC2008490968095808475FF48070054998
:10094000096809580847000003480449024A034B54
:100950007047000000000020000B0000000B0000AA
:1009600040EA010310B59B070FD1042A0DD310C82C
:1009700008C9121F9C42F8D020BA19BA884201D97E
:10098000012010BD4FF0FF3010BD1AB1D30703D0C6
:10099000521C07E0002010BD10F8013B11F8014B7C
:1009A0001B1B07D110F8013B11F8014B1B1B01D198
:1009B000921EF1D1184610BD02F0FF0343EA032254
:1009C00042EA024200F005B87047704770474FF0A6
:1009D00000020429C0F0128010F0030C00F01B800C
:1009E000CCF1040CBCF1020F18BF00F8012BA8BF1A
:1009F00020F8022BA1EB0C0100F00DB85FEAC17CDE
:100A000024BF00F8012B00F8012B48BF00F8012B90
:100A100070474FF0000200B51346944696462039C1
:100A200022BFA0E80C50A0E80C50B1F12001BFF4A7
:100A3000F7AF090728BFA0E80C5048BF0CC05DF80D
:100A400004EB890028BF40F8042B08BF704748BF5B
:100A500020F8022B11F0804F18BF00F8012B7047CF
:100A6000014B1B68DB6818470000002009480A4951
:100A70007047FFF7FBFFFFF745FB00BD20BFFDE719
:100A8000064B1847064A1060016881F308884068E1
:100A900000470000000B0000000B000017040000DE
:100AA000000000201EF0040F0CBFEFF30881EFF3ED
:100AB0000981886902380078182803D100E0000015
:100AC000074A1047074A12682C3212681047000084
:100AD00000B5054B1B68054A9B58984700BD0000B0
:100AE0007703000000000020F00A0000040000006E
:100AF000001000000000000000FFFFFF0090D00386
:10100000B009002089E60000792F0000EFE500001C
:10101000792F0000792F0000792F000000000000D8
:10102000000000000000000000000000E5E60000F5
:10103000792F000000000000792F0000792F0000B8
:101040004DE7000053E70000792F0000792F0000E2
:10105000792F0000792F0000792F0000792F0000F0
:1010600059E70000792F0000792F00005FE70000AA
:10107000792F000065E700006BE7000071E70000D2
:10108000792F0000792F0000792F0000792F0000C0
:10109000792F0000792F0000792F0000792F0000B0
:1010A000792F000077E70000792F0000792F0000EA
:1010B000792F0000792F0000792F0000792F000090
:1010C0007DE70000792F0000792F0000792F0000C4
:1010D000792F0000792F0000792F0000792F000070
:1010E000792F0000792F0000792F0000792F000060
:1010F000792F0000792F0000792F0000792F000050
:10110000792F0000792F000000F002F80DF0ABFA03
:101110000AA090E8000C82448344AAF10107DA4552
:1011200001D10DF0A0FAAFF2090EBAE80F0013F0EA
:10113000010F18BFFB1A43F0010318478CD70000BA
:10114000ACD700000A444FF0000C10F8013B13F03C
:10115000070408BF10F8014B1D1108BF10F8015B10
:10116000641E05D010F8016B641E01F8016BF9D103
:1011700013F0080F1EBF10F8014BAD1C0C1B09D15A
:101180006D1E58BF01F801CBFAD505E014F8016BCC
:1011900001F8016B6D1EF9D59142D6D3704700005E
:1011A0000023002400250026103A28BF78C1FBD870
:1011B000520728BF30C148BF0B6070471FB500F011
:1011C000A9F88DE80F001FBD8269034981614FF0C6
:1011D0000100104470470000DD11000001B41EB48E
:1011E00000B501F069FD01B40198864601BC01B06B
:1011F0001EBD0000F0B44046494652465B460FB45F
:1012000002A0013001B50648004700BF01BC864678
:101210000FBC8046894692469B46F0BC7047000052
:1012200009110000401E00BF00BF00BF00BF00BF8B
:1012300000BF00BF00BF00BF00BF00BF00BF00BFB6
:1012400000BF00BF00BF00BF00BF00BF00BF00BFA6
:1012500000BF00BF00BF00BF00BF00BF00BF00BF96
:1012600000BF00BF00BF00BF00BF00BF00BF00BF86
:1012700000BF00BF00BF00BF00BF00BF00BF00BF76
:1012800000BF00BF00BF00BF00BF00BF00BF00BF66
:1012900000BF00BF00BFC5D170470000401E00BFA7
:1012A00000BF00BF00BF00BF00BF00BF00BF00BF46
:1012B00000BF00BF00BF00BF00BF00BF00BF00BF36
:1012C00000BF00BF00BF00BF00BF00BF00BF00BF26
:1012D00000BF00BF00BF00BF00BF00BF00BF00BF16
:1012E00000BF00BF00BF00BF00BF00BF00BF00BF06
:1012F00000BF00BF00BF00BF00BF00BF00BF00BFF6
:1013000000BF00BF00BF00BF00BF00BF00BFC5D10E
:10131000704700000DF0A4B94FF0E0224FF40040F8
:101320000021C2F88001BFF34F8FBFF36F8F1748C2
:10133000016001601649900208607047134900B5CA
:1013400000220A600A60124B4FF060721A60002897
:1013500008BF00BD0F4A104BDFF840C001280CD079
:1013600002281CBFFFDF00BD032008601A604FF495
:10137000000000BFCCF8000000BD022008601A6029
:101380004FF04070F6E700B5FFDF00BD00F500400C
:1013900008F501409401002014F5004004F50140D7
:1013A00010B504460021012000F032F800210B2086
:1013B00000F02EF80421192000F02AF804210D2055
:1013C00000F026F804210E2000F022F804210F205E
:1013D00000F01EF80421C84300F01AF80621162078
:1013E00000F016F80621152000F012F8204603F050
:1013F000E3FF002010BDBC210180704703F0F1BF66
:10140000002070470A48704704F05CBE7047704780
:101410004907090E002804DB00F1E02080F80014E1
:10142000704700F00F0000F1E02080F8141D7047B5
:1014300003F9004270B50C46A0F12001312901D317
:1014400001200CE041280CD020CC094E94E80E007D
:1014500006EB8000241F50F8806C2846B0472060BF
:1014600070BD2046FFF7B0FEF9E706207047000088
:10147000ACE7000010B5EFF3108000F0010472B685
:10148000F7484178491C41704078012801D100F0AB
:10149000A5FD002C00D162B610BD70B5F04CA0784F
:1014A00048B90125A570FFF7E5FF00F0A8FD20B1C0
:1014B000002000F0EAFB002070BD4FF08040E57096
:1014C000C0F80453F7E770B5EFF3108000F00105A2
:1014D00072B6E34C607800B9FFDF6078401E607040
:1014E000607808B900F07EFD002D00D162B670BDB5
:1014F000DB4810B5817821B10021C1708170FFF700
:10150000E2FF002010BD10B5044600F078FDD4497C
:101510008978084000D001202060002010BD10B55F
:10152000FFF7A8FF00F06BFD02220123CC4954070E
:1015300028B1CC48026023610320087202E00A72DD
:10154000C4F804330020887110BD2DE9F84FDFF88E
:1015500010934278817889F80420002689F80510D4
:10156000074689F8066000783546052812D2DFE87C
:1015700000F01203050D0F0001260CE0FFF77AFFC3
:10158000B9480168C907FCD0022604E0B74E02E062
:10159000B74E00E0FFDF00F044FD4FF0010B4FF0CD
:1015A000804448B100F044FDB04205D1304600F01F
:1015B00043FD0028FAD03AE0C4F80CB0C4F8045156
:1015C000AC490E604FF08051D1F84412A94AC1F3E2
:1015D000423124321160A7493431C1F800B04FF0D4
:1015E000020AC4F804A3C4F808B0A3480168C943B8
:1015F00041F3001101F10108016841F0100101609F
:1016000000E020BFD4F804010028FAD0304600F0F2
:1016100013FD0028FAD0B8F1000F04D196480168F4
:1016200021F010010160C4F808A3C4F8045199F82E
:1016300005004E4680B1387870B900F0E0FC804675
:1016400001F05CFB6FF00042B8F1000F02D0C6E978
:10165000032001E0C6E9030283480068C00701D007
:1016600000F0C9FC387810B13572BDE8F88F4FF042
:101670001808C4F808835F46C4F818B04FF4A07087
:10168000ADF80000BDF80000411EADF80010F9D221
:10169000C4F80C51C4F810517148C01D00F080FD11
:1016A0003570FFF73CFF676172493079203108607F
:1016B000C4F80483D9E770B5050000D1FFDF4FF00F
:1016C00080424FF0FF30C2F808030021C2F8001139
:1016D000C2F80411C2F80C11C2F81011604C61700C
:1016E00000F099FC10B10120A07060705E480068A5
:1016F000C00701D000F07FFC2846BDE8704024E719
:101700005748007A002800D0012070472DE9F84F93
:101710004FF08044D4F8080100B10120D4F8001142
:1017200011B14FF0010801E04FF00008D4F80411A6
:1017300001B101218B46D4F80C1101B101218A4677
:10174000D4F8101101B10121454D894629780026B0
:10175000009120B1C4F80861012000F096FA4048D9
:10176000C01D00F025FD00B1FFDF0127B8F1000F1B
:1017700010D0C4F80873E87818B1EE70002000F0BB
:1017800084FA287A022805D10320287235480221DC
:1017900001602761BBF1000F01D0C4F80461BAF108
:1017A000000F0AD0C4F80C61287A032800D0FFDFAC
:1017B0002C4806602F72FFF786FEB9F1000F07D0A4
:1017C000C4F81061287A012801D100F057F8676148
:1017D000009838B12E70287A012801D1FFF79FFEBA
:1017E000FFF771FEBDE8F84F1D48C01D00F0F6BCC4
:1017F0001B4810B5C01D00F0DBFC194940B10120A9
:1018000008704FF0E021C1F80002BDE8104031E659
:10181000087A012801D1FFF782FE1148BDE8104087
:10182000C01D00F0DBBC70B50D4CA07808B900F00D
:10183000D9FB01208507A861207A0026032809D159
:10184000D5F80C0120B9002000F0F6FB0028F7D1F4
:10185000C5F80C6126724FF0FF30C5F8080370BD63
:1018600008000020340C00400C040040010002007D
:10187000010003001805004010ED00E070B5134CA6
:101880006079F0B1012803D0A179401E814218DAB5
:1018900000F0B5FB054601F031FA6179012902D962
:1018A000A179491CA1710DB1216900E0E168411ADB
:1018B000022902DA11F1020FD1DC0DB1206100E042
:1018C000E060BDE870402AE6C9E70000080000209B
:1018D0002DE9F041044680074FF000054FF0010666
:1018E0000CD56B480560066001F0A2FA20B169488A
:1018F000016841F48061016024F00204E0044FF0CB
:10190000FF3705D564484660C0F8087324F4805456
:10191000600003D56148056024F08044E0050FD5E0
:101920005F48C0F80052C0F808735E490D60091D99
:101930000D605C4A04210C321160066124F480744D
:10194000A00409D558484660C0F80052C0F8087392
:101950005648056024F40054C4F38030C4F3C03109
:10196000884200D0FFDF14F4404F14D05048466046
:10197000C0F808734F488660C0F80052C0F808737A
:101980004D490D600A1D16608660C0F808730D6031
:10199000166024F4404420050AD548484660866015
:1019A000C0F80873C0F848734548056024F4006423
:1019B00000F076FD4348044200D0FFDFBDE8F0812F
:1019C000F0B50022202501234FEA020420FA02F19B
:1019D000C9072DD051B2002910DB00BF4FEA5117C3
:1019E0004FEA870701F01F0607F1E02703FA06F622
:1019F000C7F88061BFF34F8FBFF36F8F0CDB00BF61
:101A00004FEA51174FEA870701F01F0607F1E02759
:101A100003FA06F6C7F8806204DB01F1E02181F8E1
:101A2000004405E001F00F0101F1E02181F8144DBF
:101A300002F10102AA42C9D3F0BD10B5224C2060C8
:101A40000846FFF738FE2068FFF742FF2068FFF7DF
:101A5000B7FF00F03BF800F0BEFF00F021FD00F002
:101A60006CFC01F0A1F8BDE8104000F02FB910B5F2
:101A7000154C2068FFF72CFF2068FFF7A1FF00F04E
:101A80000FFDFFF7D0FE0020206010BD0A20704738
:101A9000FC1F00403C17004000C0004004E501402E
:101AA000008000400485004000D0004004D5004084
:101AB00000E0004000F0004000F5004000B00040B1
:101AC00008B50040FEFF0FFD1C00002010B5534874
:101AD00000F066FB00B1FFDF5048401C00F060FBE7
:101AE000002800D0FFDF10BD2DE9F14F4C4ED6F895
:101AF00000B00127494800F05BFBDFF8208128B9DE
:101B00005FF0000708F1010000F068FB454C00257C
:101B10004FF0030901206060C4F80051C4F804517B
:101B2000009931602060DFF800A118E0DAF80000C9
:101B3000C00614D50E2000F064F8EFF3108010F00A
:101B4000010072B600D00120C4F80493D4F800114B
:101B500019B9D4F8041101B920BF00B962B6D4F89C
:101B6000000118B9D4F804010028DFD0D4F804012A
:101B70000028CFD137B1C6F800B008F1010000F05D
:101B800017FB11E008F1010000F012FB0028B9D1A9
:101B9000C4F80893C4F80451C4F800510E2000F0B2
:101BA00030F81E4800F01AFB0020BDE8F88F2DE940
:101BB000F0438DB00D46064600240DF110090DF1DD
:101BC000200817E004EB4407102255F82710684658
:101BD0000CF095FC05EB87071022484679680CF05D
:101BE0008EFC6846FFF780FF10224146B8680CF073
:101BF00086FC641CB442E5DB0DB00020BDE8F08338
:101C000072E7002809DB00F01F0201219140400922
:101C1000800000F1E020C0F8801270472000002012
:101C200004E5004000E0004010ED00E070B52649FA
:101C30000A680AB30022154601244B685B1C4B60FE
:101C4000092B00D34D600E7904FA06F30E681E428C
:101C50000FD0EFF3108212F0010272B600D0012211
:101C60000C689C430C6002B962B6496801600020B0
:101C700070BD521C092AE0D3052070BD4FF0E02151
:101C80004FF48000C1F800027047EFF3108111F0AB
:101C9000010F72B64FF0010202FA00F20A4803681F
:101CA00042EA0302026000D162B6E7E7064800217B
:101CB000016041607047012181400348006808408D
:101CC00000D001207047000024000020B849002007
:101CD0000870704770B5B74D01232B60B64B1C6878
:101CE000002CFCD0002407E00E6806601E68002E61
:101CF000FCD0001D091D641C9442F5D3002028600F
:101D000018680028FCD070BD70B5A94E0446AB4DD4
:101D10003078022800D0FFDFAC4200D3FFDF7169CA
:101D2000A748012903D847F23052944201DD03222B
:101D30004271491C7161291BC160A149707802F090
:101D4000E5F9002800D1FFDF70BD70B5984C0D4655
:101D50006178884200D0FFDF984E082D4BD2DFE833
:101D600005F04A041E2D4A4A4A382078022800D03D
:101D7000FFDF03202070A078012801D020B108E007
:101D8000A06800F06BF904E004F1080007C8FFF751
:101D9000A1FF05202070BDE8704001F0EEBD01F00C
:101DA000E7FE0146606802F036FEB04202D2616989
:101DB00002290BD30320FFF768FF12E001F0D8FEE1
:101DC0000146606802F027FEB042F3D2BDE87040E1
:101DD0009AE7207802280AD0052806D0FFDF0420E1
:101DE0002070BDE8704000F0D8B8022000E0032069
:101DF000FFF74BFFF3E7FFDF70BD70B5054601F05D
:101E0000B7FE6B4C60602078012800D0FFDF6C4982
:101E1000012008700020087104208D604871674817
:101E2000C86002202070607802F070F9002800D1AC
:101E3000FFDF70BD10B55E4C207838B90220FFF787
:101E40003AFF18B90320FFF736FF08B1112010BD83
:101E50005C4801F00CFE6070202804D00120207046
:101E60000020606110BD032010BD2DE9F04715462C
:101E7000044600EB85000E46A0F1040800F001F9CD
:101E800007464FF0805001694F4306EB8501091F5B
:101E9000B14201D2012100E0002189461DB1006953
:101EA000B5EB900F02D90920BDE8F087204600F07D
:101EB000D1FFB0B9A04514D3BC4201D2B84503D379
:101EC000414820447C2803D844EA0600800701D01A
:101ED0001020E9E7304600F0BDFF10B9B9F1000F5E
:101EE00001D00F20E0E7394839490068884205D021
:101EF0002A4631462046FFF7EDFE14E0FFF79AFF31
:101F00000028D1D12A4800210561C0E9024681702C
:101F100000F064FF10B14FF4A97000E0292068437D
:101F20001830FFF76AFF0020BEE770B505464FF096
:101F3000805004696C43204600F08CFF08B10F20EC
:101F400070BD00F09EF8A84201D8102070BD1F4857
:101F50001F490068884203D0204600F07FF810E057
:101F6000FFF768FF0028F1D11148012184608170DA
:101F700000F034FF08B1174800E017481830FFF7A9
:101F80003CFF002070BD30B452EA030402D030BCE4
:101F90000620704730BC00F02FB910B5044C6078B3
:101FA00001F0C7FD00B9FFDF0020207010BD000068
:101FB0002C00002004E5014000E40140105C0C000E
:101FC000C00100204B1D000080EFFFEF9C000020AF
:101FD000BEBAFECA645E0100084C01000120810700
:101FE000086070470121880741600021C0F8001196
:101FF00018480170704717490120087070474FF06A
:102000008040D0F80001012803D012480078002851
:1020100000D00120704710480068C00700D00120A0
:1020200070470D480C300068C00700D00120704791
:102030000948143000687047074910310A68D20314
:1020400006D509688907B1EB807F01D1012070476F
:102050000020704744000020080400400B4A022181
:1020600011600B490B68002BFCD0084B1B1D18603E
:1020700008680028FCD00020106008680028FCD008
:1020800070474FF0805040697047000004E5014000
:1020900000E4014010B50D2000F06FF8C4B26FF0FD
:1020A000040000F06AF8C0B2844200D0FFDF3A4971
:1020B0000120086010BD70B50D2000F040F8374CCD
:1020C0000020C4F800010125C4F804530D2000F0DD
:1020D00047F825604FF0E0216014C1F8000170BDA1
:1020E00010B50D2000F02BF82C4801214160002193
:1020F000C0F80011BDE810400D2000F031B82749AC
:1021000010B5D1F80001012801D0FFDF10BD224831
:10211000001D00680022C0B2C1F80021BDE81040D7
:1021200000F0C8BC10B51D48D0F800110029FBD044
:10213000FFF7E5FFBDE810400D2000F011B80028C2
:102140000DDB00F01F02012191404009800000F1E9
:10215000E020C0F88011BFF34F8FBFF36F8F70473F
:10216000002809DB00F01F02012191404009800096
:1021700000F1E020C0F880127047002804DB00F175
:10218000E02090F8000405E000F00F0000F1E020EE
:1021900090F8140D4009704704D5004000D000406D
:1021A0000021017008467047014600200870704702
:1021B000EFF3108101F0010172B60278012A01D01B
:1021C000012200E000220123037001B962B60AB1C6
:1021D000002070474FF400507047E9E7EFF310819B
:1021E00011F0010F72B64FF00002027000D162B61A
:1021F00000207047F2E70000094A1060101D0160DE
:1022000000207047704700207047054B02465B4234
:1022100010201344FC2B01D81160002070470000EF
:10222000000600404C4909680160002070474A4997
:1022300008600020704701218A0720B1012804D0DE
:1022400042F204007047916700E0D16700207047B8
:1022500042490120086042F20600704708B5042395
:102260003E4A1907103230B1C1F80433106840F00B
:10227000010010600BE0106820F001001060C1F850
:1022800008330020C1F8080135480068009000209C
:1022900008BD011F0B2909D8304910310A6822F006
:1022A0001E0242EA400008600020704742F205002A
:1022B0007047000100F18040C0F804190020704709
:1022C000000100F18040C0F80819002070470001AB
:1022D00000F18040D0F80009086000207047012814
:1022E00001D9072070471F4A52F8200002680A43AC
:1022F000026000207047012801D907207047194A61
:1023000052F8200002688A430260002070470128CA
:1023100001D907207047134A52F82000006808606E
:1023200000207047020010494FF0000003D0012A3E
:1023300001D0072070470A6070474FF080410020AD
:10234000C1F808014FF0E020802180F8001401213D
:10235000C0F8001170470000000400400005004074
:1023600008010040D02F0000780500406249634B0F
:102370000A6863499A42096801D1C1F310010160FA
:10238000002070475C495D4B0A685D49091D9A420F
:1023900001D1C0F310000860002070475649574B28
:1023A0000A68574908319A4201D1C0F31000086009
:1023B0000020704730B5504B504D1C6842F2080366
:1023C000AC4202D0142802D203E0112801D31846EF
:1023D00030BDC3004B481844C0F81015C0F8142590
:1023E000002030BD4449454B0A6842F209019A4237
:1023F00002D0062802D203E0042801D30846704721
:10240000404A012142F83010002070473A493B4BC6
:102410000A6842F209019A4202D0062802D203E079
:10242000042801D308467047364A012102EBC00058
:1024300041600020704770B52F4A304E314C15680E
:1024400042F2090304EB8002B54204D0062804D20C
:10245000C2F8001807E0042801D3184670BDC1F384
:102460001000C2F80008002070BD70B5224A234E4B
:10247000244C156842F2090304EB8002B54204D0F3
:10248000062804D2D2F8000807E0042801D3184631
:1024900070BDD2F80008C0F310000860002070BDC5
:1024A000174910B50831184808601120154A002155
:1024B00002EBC003C3F81015C3F81415401C142810
:1024C000F6D3002006E0042804D302EB8003C3F80F
:1024D000001807E002EB8003D3F80048C4F31004AF
:1024E000C3F80048401C0628EDD310BD0449064837
:1024F00008310860704700009C000020BEBAFECA88
:1025000000F5014000F001400000FEFF02000B4614
:102510004FF00000014620D0012A04D0022A04D046
:10252000032A0DD103E0012002E0022015E0032080
:10253000072B05D2DFE803F00406080A0C0E100092
:1025400007207047012108E0022106E0032104E092
:10255000042102E0052100E0062101F0A6BA0000F6
:10256000F948052181700021017041707047F749D9
:102570000A78012A05D0CA681044C860403802F0C1
:1025800015BA8A6810448860F8E7002819D00378E3
:10259000EF49F04A13B1012B0ED011E00379012B62
:1025A00000D06BB943790BB1012B09D18368643B2F
:1025B0008B4205D2C0680EE00379012B02D00BB12B
:1025C0000020704743790BB1012BF9D1C368643BFC
:1025D0008B42F5D280689042F2D801207047DB49E7
:1025E00010B501220A700279A2B100220A71427963
:1025F00092B104224A718268D34C52328A60C06818
:102600001434C860606001F0B3FACF492060022042
:10261000887010BD0322E9E70322EBE770B5CB4DCC
:10262000044600202870207988B100202871607944
:1026300078B10420C44E6871A168F06800F036FFDC
:10264000A860E0685230E8600320B07070BD0120DF
:10265000ECE70320EEE72DE9F0410546022602F003
:1026600069F8006800B1FFDFB74C01273DB1287859
:10267000B0B1012805D0022810D0032813D027714B
:102680000CE06868C82807D302F0F0F920B1686848
:10269000FFF76DFF012603E0002601E000F05EF980
:1026A0003046BDE8F08120780028F7D16868FFF750
:1026B0006CFF0028E3D06868017879B1A07804281D
:1026C00000D0FFDF01216868FFF7A8FF9F49E0788D
:1026D00001F01CFD0028E1D1FFDFDFE7FFF77FFFFE
:1026E0006770DBE72DE9F047974C8846E178884230
:1026F00000D0FFDFDFF8509200250127934E09F14B
:102700001409B8F1080F75D2DFE808F0040C28525C
:102710007A808D95A078032802D0022800D0FFDFB0
:10272000BDE8F087A078032802D0022800D0FFDFA0
:102730000420A07025712078002878D1FFF717FFBA
:102740003078012806D0B068E060FFF75CFD2061BA
:10275000002060E0E07801F04DFBF5E7A078032869
:1027600002D0022800D0FFDF207800286DD1A078A9
:10277000032816D001F0FCF901464F46D9F80000B5
:1027800002F049F900280EDB796881420BDB081A58
:10279000F0606E49E07801F0B9FC0028C0D1FFDF9D
:1027A000BEE7042028E00420FFF76FFAA570B7E722
:1027B000A078032802D0022800D0FFDF207888BB51
:1027C000A078032817D001F0D3F901464F46D9F875
:1027D000000002F020F90028E5DB79688142E2DBA5
:1027E000081AF0605949E07801F090FC002897D170
:1027F000FFDF95E740E00520FFF747FAA7708FE776
:10280000A078042800D0FFDF022004E0A07804288C
:1028100000D0FFDF0120A1688847FFF71CFF0546B5
:1028200030E004E011E0A078042800D0FFDFBDE82C
:10283000F04700F093B8A078042804D0617809B17B
:10284000022800D0FFDF207818B1BDE8F04700F083
:102850008EB8207920B10620FFF717FA2571CDE751
:10286000607838B13949E07801F050FC00B9FFDFF9
:10287000657055E70720BFE7FFDF51E73DB1012D48
:1028800003D0FFDF022DF9D14AE70420C3E703207C
:10289000C1E770B5050004D02B4CA078052806D1FF
:1028A00001E0102070BD0820FFF705FA08B11120E3
:1028B00070BD294801F0DBF8E070202806D0012126
:1028C00002F049FA0020A560A07070BD032070BD21
:1028D0001D4810B5017809B1112010BD8178052976
:1028E00006D0012906D029B101210170002010BDB8
:1028F0000F2010BD00F03BF8F8E770B5124C05460C
:10290000A07808B1012809D155B12846FFF73DFE4E
:1029100040B1287840B1A078012809D00F2070BDBF
:10292000102070BD072070BD2846FFF758FE03E059
:1029300000212846FFF772FE0449E07801F0E6FB2B
:1029400000B9FFDF002070BD48000020D00100204A
:102950003D860100FF1FA107E52600000A4810B5CB
:102960000069FFF74FFCBDE8104001F006B80648CB
:1029700010B5C07801F0DDF800B9FFDF0820FFF7DF
:1029800084F9BDE81040EBE5480000202DE9F04156
:1029900015460E460446002700F0E7F8A84215D376
:1029A000002341200FE000BF94F84220A25CF254C3
:1029B00094F84210491CB1FBF0F200FB12115B1CB1
:1029C00084F84210DBB2AB42EED3012700F0D9F815
:1029D0003846BDE8F081704910B5802081F80004C8
:1029E0006E49002081F8420081F84100433181F8AE
:1029F000420081F84100433181F8420081F84100F2
:102A00006748FFF7CDFB6648401CFFF7C9FBFFF79F
:102A100041FBBDE8104000F0B4B8402070475F486B
:102A200000F0A3B80A4601465C48AFE74020704773
:102A30005A48433000F099B80A4601465748433097
:102A4000A4E7402101700020704710B504465348A8
:102A5000863000F08AF82070002010BD0A4601463A
:102A60004E4810B58630FFF791FF08B1002010BD29
:102A700042F2070010BD70B50C460546412900D949
:102A8000FFDF48480068103840B200F050F8C6B286
:102A90000D2000F04CF8C0B2864203D2FFDF01E007
:102AA000FFF740FB224629463C48FFF76FFF00280E
:102AB000F6D070BD2DE9F041394F002506463F1D87
:102AC00057F82540204600F041F810B36D1CEDB2D8
:102AD000032DF5D33148433000F038F8002825D0D5
:102AE0002E4800F033F8002820D02C48863000F023
:102AF0002DF800281AD0FFF7F3FA2948FFF758FB02
:102B0000B0F5005F00D0FFDFBDE8F0412448FFF7DB
:102B100065BB94F841004121265414F8410F401C34
:102B2000B0FBF1F201FB12002070D3E751E700285F
:102B300004DB00F1E02090F8000405E000F00F0055
:102B400000F1E02090F8140D4009704710F8411F83
:102B50004122491CB1FBF2F302FB13114078814280
:102B600001D1012070470020704710F8411F4078C4
:102B7000814201D3081A02E0C0F141000844C0B20A
:102B8000704710B50648FFF713FB002803D1BDE8D6
:102B90001040FFF790BA10BD0DE000E0E00100200A
:102BA0006400002004ED00E04FF0E0214FF00070E1
:102BB000C1F8800101F5C071BFF34F8FBFF36F8F74
:102BC000C1F80001334B802283F8002441F8800CC7
:102BD000704700B5024604202F4903E001EBC00313
:102BE0001B792BB1401EC0B2F8D2FFDFFF2000BD21
:102BF00041F8302001EBC00100224A718A710122A4
:102C00000A7100BD244A002102EBC0000171704727
:102C100010B50446042800D3FFDF1F4800EBC404AE
:102C20002079012800D0FFDF6079A179401CC0B273
:102C3000814200D060714FF0E0214FF00070C1F888
:102C4000000210BD70B51348042590F80004124E20
:102C50004009124C042818D0FFDF16E0217806EB5B
:102C6000C1000279012A08D1427983799A4204D0BD
:102C70004279827156F8310080472078401CC0B2FA
:102C80002070042801D3002020706D1EEDB2E5D223
:102C900070BD000019E000E0AC02002074000020CC
:102CA00070B5154D2878401CC4B26878844202D0B3
:102CB00000F07BF82C7070BD2DE9F0410E4C4FF008
:102CC000E02600BF00F06FF820BF40BF20BF67784C
:102CD00020786070D6F80052FEF794FB854305D14A
:102CE000D6F8040210B92078B842EBD000F05AF8B8
:102CF0000020BDE8F0810000750000202DE9F041C2
:102D0000012528034FF0E0210026C1F88001BFF320
:102D10004F8FBFF36F8F1F4CC4F800610C2000F081
:102D20002CF81D4801680268C94341F3001142F0C4
:102D300010020260C4F804532560491C00E020BF63
:102D4000D4F80021002AFAD019B9016821F0100145
:102D50000160124807686560C4F80853C4F8006150
:102D60000C2000F00AF83846BDE8F08110B50446A2
:102D7000FFF7C4FF2060002010BD002809DB00F031
:102D80001F02012191404009800000F1E020C0F8BD
:102D90008012704700C0004010ED00E008C5004000
:102DA00070477047704770477047704770474FF0E3
:102DB0008050D0F830010A2801D00020704701204F
:102DC000704700B5FFF7F3FF20B14FF08050D0F807
:102DD000340108B1002000BD012000BD4FF080503B
:102DE000D0F83011062905D0D0F83001401C01D0B0
:102DF00000207047012070474FF08050D0F830011C
:102E0000082801D0002070470120704700B5FFF767
:102E1000E5FF48B14FF08050D0F83411062905D3B2
:102E2000D0F83401401C01D0002000BD012000BDBD
:102E300000B5FFF7D3FF58B14FF08050D0F83411F0
:102E4000062905D3D0F83401401C01D0012000BD73
:102E5000002000BD3249884201D201207047002085
:102E6000704770B50446A0F500002E4EB0F1786FA3
:102E700002D23444A4F500042948844201D2012539
:102E800000E0002500F043F848B125B9B44204D36E
:102E90002548006808E0012070BD002070BD002DAD
:102EA000F9D1B442F9D321488442F6D2F3E710B500
:102EB0000446A0F50000B0F1786F03D2194804442D
:102EC000A4F5000400F023F84FF0804130B116481B
:102ED000006804E08C4204D2012003E013488442DD
:102EE000F8D2002080F0010010BD10B520B1FFF72E
:102EF000DEFF08B1012010BD002010BD10B520B1CB
:102F0000FFF7AFFF08B1012010BD002010BD084839
:102F100008490068884201D10120704700207047AD
:102F20000020010000000020880000200800002090
:102F30009C000020BEBAFECA01F025BD0449002055
:102F400008604FF0E0210220C1F8800270470000C5
:102F5000FC1F00400348044A0168914201D100214E
:102F6000016070479C000020BEBAFECA0F4A12687A
:102F70000D498A420CD118470C4A12680A4B9A42F2
:102F800006D101B5FFF78CFEFFF70CFFBDE801404D
:102F9000074909680958084706480749054A064B82
:102FA0007047000000000000BEBAFECA9C0000206E
:102FB00004000020B0090020B009002070477047CD
:102FC0007047704770477047704770477047000000
:102FD0001C05004020050040000000000600000025
:102FE0000A0000003200000073000000B40000007E
:102FF00000100200000000000000000000000000BF
:103000002CFFFFFFDBE5B15100200100BC00FFFFFA
:10301000D400000069915B00546B42FE58AAC34281
:1030200032B3E685C3290C4D3958E5562DE9F047F2
:10303000FF4C0646FF21A06800EB061211702178B4
:10304000FF2910D04FF0080909EB011109EB061711
:103050004158C05900F0F4F9002807DDA168207834
:1030600001EB061108702670BDE8F08794F8008027
:1030700045460DE0A06809EB05114158C05900F024
:10308000DFF9002806DCA068A84600EB08100578E8
:10309000FF2DEFD1A06800EB061100EB08100D70BA
:1030A0000670E1E7F0B5E24B0446002001259A687E
:1030B0000C269B780CE000BF05EB0017D75DA742FC
:1030C00004D106EB0017D7598F4204D0401CC0B280
:1030D0008342F1D8FF20F0BD70B501F0C5FCD44C9F
:1030E00008252278A16805EB0212895800F0A8F99A
:1030F000012808DD2178A06805EB01114058BDE8E2
:10310000704001F0A8BC01F018FBBDE87040FFF76B
:103110007FBD2DE9F041C64C257801F0A5FCFF2DBF
:103120006ED04FF00808A26808EB0516915900F020
:1031300087F90228A06801DD80595DE000EB0511E8
:1031400009782170022101EB0511425C5AB1521E2F
:103150004254815901F5800121F07F418151284677
:10316000FFF764FF34E00423012203EB051302EBB5
:10317000051250F803C0875CBCF1000F10D0BCF5FD
:10318000007F10D9CCF3080250F806C00CEB423C8B
:103190002CF07F4C40F806C0C3589A1A520A09E036
:1031A000FF2181540AE0825902EB4C3222F07F4227
:1031B0008251002242542846FFF738FF0C21A068B4
:1031C00001EB05114158E06850F827203846904738
:1031D0002078FF2814D001F047FC2278A16808EB82
:1031E00002124546895800F02BF9012893DD217819
:1031F000A06805EB01114058BDE8F04101F02BBC7F
:10320000BDE8F081F0B51D4614460E460746FF2B7B
:1032100000D3FFDFA00700D0FFDF8548FF21002299
:10322000C0E90247C5700671017042708270104695
:10323000012204E002EB0013401CE154C0B2A8429A
:10324000F8D3F0BD70B57A4C064665782079854292
:1032500000D3FFDFE06840F825606078401C6070B4
:10326000284670BD2DE9FF5F1D468B460746FF24AB
:1032700001F0FAFBDFF8B891064699F80100B84270
:1032800000D8FFDF00214FF001084FF00C0A99F839
:103290000220D9F808000EE008EB0113C35CFF2BF5
:1032A0000ED0BB4205D10AEB011350F803C0DC4538
:1032B0000CD0491CC9B28A42EED8FF2C02D00DE0D6
:1032C0000C46F6E799F803108A4203D1FF2004B0B8
:1032D000BDE8F09F1446521C89F8022008EB041147
:1032E0000AEB0412475440F802B00421029B00226A
:1032F000012B01EB04110CD040F801204FF40078B1
:1033000008234FF0020C454513D9E905C90D02D039
:1033100002E04550F2E7414606EB413203EB04136D
:1033200022F07F42C250691A0CEB0412490A815400
:103330000BE005B9012506EB453103EB041321F041
:103340007F41C1500CEB0411425499F800502046C3
:10335000FFF76CFE99F80000A84201D0FFF7BCFE11
:103360003846B4E770B50C46054601F07DFB0646CD
:1033700021462846FFF796FE0446FF281AD02C4D1A
:10338000082101EB0411A8684158304600F058F8B4
:1033900000F58050C11700EBD14040130221AA680C
:1033A00001EB0411515C09B100EB4120002800DC65
:1033B000012070BD002070BD2DE9F0478846814690
:1033C000FFF770FE0746FF281BD0194D2E78A8681E
:1033D0003146344605E0BC4206D0264600EB0612D4
:1033E0001478FF2CF7D10CE0FF2C0AD0A6420CD1A8
:1033F00000EB011000782870FF2804D0FFF76CFE66
:1034000003E0002030E601F02CFB41464846FFF780
:10341000A9FF0123A968024603EB0413FF20C85447
:10342000A878401EB84200D1A87001EB041001E05A
:10343000CC02002001EB061100780870104613E65C
:10344000081A0002C11700EB11600012704700005B
:103450002DE9F04190460C4607460025FE48072F0F
:1034600000EB881607D2DFE807F007070707040418
:103470000400012500E0FFDF06F81470002D08BFEE
:10348000BDE8F081F54800EB880090F8271020296E
:103490000EBF80F8264006EB41014C70202106EB60
:1034A0004402517080F82740BDE8F08130B50D46E8
:1034B000EB4A44190021101A71EB010038BFFFDFFD
:1034C000E8488542C8BFFFDFE7488542B8BFFFDF55
:1034D000E6488442A8BFE64804DA002CAABF20468A
:1034E000E24830BD201830BD2DE9F05FDB4D95F886
:1034F0002D6005EB860090F82640202C08BFBDE823
:10350000F09FDFF870A3DFF85093A9F5007B09EB7B
:103510008618072718F8140001280AD0042808BFC5
:10352000022706D0052808BF032702D0062818BFA7
:10353000FFDFBAF1000F18BFAFF30080EFF3108088
:1035400000F0010072B608EB44014A7805EB8601F1
:1035500081F8262091F82720A24204BF202281F87A
:103560002720A0B1324621460120FFF771FF0BEB67
:103570000410394602682046904795F82D6005EB07
:10358000860090F82640202CC1D1BDE8F09FBA48B3
:10359000002818BFAFF3008062B6E3E710B5AF4C68
:1035A000202184F8251084F8261084F827100020A4
:1035B00084F8280084F82D0084F82E10411EA160A4
:1035C000206084F8200084F8210020776077A077BD
:1035D000AA4984F82F0084F8240008704870A4F1E8
:1035E00082011022887001F8040F521EFAD10120C6
:1035F00001F044FD002001F041FD012084F822008B
:10360000FFF7D2FA9E48FFF7E4FA9E4C20709E48DE
:10361000FFF7DFFA6070BDE8104001F0BDBC10B5E7
:1036200001F0EBFC974C2078FFF7ECFA6078FFF79D
:10363000E9FA8A4C94F82400002808BF10BDFDF771
:1036400042FF002084F8240010BD202070472DE99F
:10365000F04F8146814889B000EB8908A0F52077BA
:1036600098F82550202D3CD02C4601F0B4FD07EBF6
:103670000412864E51689268091A101A21F07F418F
:1036800020F07F40012904D3B1F5800F01D286429A
:103690001BD2714800EB891BA2460BEB4A00447811
:1036A000202C12D001F097FD07EB04114A688968BD
:1036B000121A081A22F07F4220F07F40012AEBD331
:1036C000B2F5800FE8D28642E6D3AC4209D04B4631
:1036D00052462021042001F051FB09B00020BDE832
:1036E000F08F6B48002818BFAFF3008001F073FD26
:1036F0005A4C94F82F1069B1E168421C511A090222
:10370000CA1701EB126109120029C2BF002009B0DB
:10371000BDE8F08F0646CDF8208098F825002028D7
:1037200035D04FF000084FF0FF3107EB001BCDF80C
:1037300000800291DBE90101DBF80C200592CDE964
:1037400003015448B0F89C12ADF81C1090F89E028A
:103750008DF81E009DF8150000280CBF4FF0040ADC
:103760004FF0020A4C4951F82070039907EB0A0206
:10377000114421F07F410191002F14BF022100214B
:103780008DF81810022818BF012815D035E04FF029
:10379000010001F073FC002001F070FC01F054FC0A
:1037A00094F8240020B1FDF78EFE002084F8240058
:1037B000002084F82F00D2E003989DF81C103844B4
:1037C000801B801C20F07F40002918BF022135316A
:1037D00081420BD203208DF815000398C7F1320106
:1037E000401A20F07F403227039012E094F8240022
:1037F00018B9FEF704FC00287DD0322F09D247B15A
:1038000094F8240060B9FDF735FE012084F8240007
:1038100006E094F8240018B1FDF755FE84F82480E2
:10382000164A1178B9B152780020D21B9DF818C001
:10383000039F012916BF0329012300238DF81E30A1
:10384000002A04DDBA1A039201228DF818209DF88F
:103850001C20002A22E045E0DC0400205C0500205A
:10386000FF7F841E0020A10700E05EF80080841E18
:1038700000807BE1000000000000000079000020D3
:103880001331000077000020E9340000FFFF3F0003
:1038900000000000DC020020D82F000018BF02202A
:1038A000039ADDF810E022F07F420392921BFB4B5B
:1038B00022F07F42AEEB060626F07F46904298BF8C
:1038C000B2F5800F01D2B3420CD29DF81D00002842
:1038D00008BF032947D08DF81C8003978DF818C0C6
:1038E0008DF81E809DF8180060B103984FF0010319
:1038F00000EB0A0100E036E04FF00002184601F04C
:1039000006FC02E0012001F0B9FB9BF90C20012329
:103910000020019901F0FBFB9BF80F0010F0010F54
:1039200018BF01F018FD012084F82F00089880F8D6
:1039300028809DE80E10DA48C0F88012C0F8842272
:10394000C0F88832C0F88CC204AD95E80E10C0F8FB
:103950009012C0F89422C0F89832C0F89CC209B006
:103960000120BDE8F08F4B462A462021042001F0BB
:1039700005FA09B00020BDE8F08F2DE9F041C94CEF
:10398000256901F028FC401B0002C11700EB116003
:10399000001258BFFFDF94F82200002818BFFFDF95
:1039A000012784F8227094F82E00202808BFFFDF3A
:1039B00094F82E60202084F82E00002584F82F50E3
:1039C00084F8205084F82150B748256000780228F8
:1039D00016BF0328012000202077A068B0F1FF3F28
:1039E00005D04FF0FF30A060012001F047FB002020
:1039F00001F044FB01F06BFC01F060FC01F024FBE2
:103A0000FEF774FDA948056005604FF0E0214FF412
:103A10000040C1F88002FFF791FA94F82D804046EB
:103A2000FFF715FE0028FAD0A14800EB881010F827
:103A30001600022804D1424631460620FFF708FD51
:103A400084F8237004EB880090F82600202803D027
:103A500098484078FFF7DCF8207F002808BFBDE8D1
:103A6000F08101F01DFC25776577BDE8F081034604
:103A70008C4810B590F82D200024803800EB82107F
:103A800010F8141029B1611CCCB2202CF8D32020DE
:103A900010BD8348002100EB04100360C173214670
:103AA0000120FFF7D5FC204610BD012804D00328D3
:103AB00008BF002934D000E079B37A4A92F82D305B
:103AC000DFF8ECC14FF000020CEB831313F812C0C7
:103AD000BCF1000F01D008207047521CD2B2202A3E
:103AE000F4D3714A002812BF0228002151700BD074
:103AF000072915D2DFE801F01404060B0D0F1200A0
:103B00001B2100E03A2151701070002070475821AD
:103B1000F9E77721F7E79621F5E701E0B521F2E72C
:103B200007207047604810B5407801F0E5FB80B28F
:103B300010BD10B5202811D25A4991F82D30A1F1AD
:103B4000800202EB831C1CF810303BB191F82D3041
:103B500002EB831212F81020012A01D0002010BDC0
:103B600091F82D2001460020FFF772FC012010BDC6
:103B700010B501F030FBBDE8104001F0BDBB2DE9F0
:103B8000F04F484A82B002EB810B20239BF825209E
:103B90004FF0000A6E4601AF8DF80030202A08BFB2
:103BA0008DF8043000F02281DFF804C1DFF808E16D
:103BB0000CEB8118ACF5007404EB021303F1040C58
:103BC0009B680568EB1A1B024FEAE37903EB196364
:103BD0001B1223D4437ACBB19CF80990B9F1000FA2
:103BE00014D15EF82330DCF800C02B44DEF800501E
:103BF0009B1CAC440CF1040CA3EB0C031B024FEA1E
:103C0000E37C03EB1C631B12322B07DB327008EBE7
:103C100042025278202ACFD13378A2E033783B7029
:103C2000202A7CD004EB0213D0F804C05E681D1D6E
:103C3000A6EB0C0C4FEA0C2C4FEAEC790CEB196C50
:103C40005FEA2C2C1ED495F809C0BCF1000F66D099
:103C5000457A002D63D15EF82CC00568B444DEF8C7
:103C600000600CF1020C35442D1DACEB050C4FEA45
:103C70000C2C4FEAEC750CEB156C4FEA2C2CBCF1BC
:103C8000320F4CDA3A709B7B90F80AC0634515D925
:103C900008EB42025278202AC4D1A7E0FFFF3F0080
:103CA000DC0200205C0500207900002000F50040C7
:103CB000DC04002077000020D82F00009DF80420AD
:103CC000D0E900C304EB0212A3EB0C0392684FF09F
:103CD000010A22F07F4C1A4422F07F42C0E900C260
:103CE0009BF825202023E8468DF80030202A1CBFB1
:103CF000F94B03EB81163CD004EB021303F1040CE7
:103D00009B680568EB1A1B024FEAE37903EB196322
:103D10001B1228D4437ADBB19CF8099000E065E0DF
:103D2000B9F1000F14D15EF82330DCF800C02B4449
:103D3000DEF800509B1CAC440CF1040CA3EB0C030C
:103D40001B024FEAE37C03EB1C631B12322B0ADBE2
:103D500088F8002006EB42025278202ACCD198F84D
:103D600000303B7042E098F800303B70202A04D1CC
:103D70003CE0DBB28DF8043038E004EB0215436818
:103D8000D5F8048005F1040CA8EB03031B024FEAED
:103D9000E37903EB19631B121CD49CF809302BB395
:103DA00090F809C0BCF1000F20D15EF82330D0F8A4
:103DB00000C04344DEF800809B1CC4440CF1040C9A
:103DC000A3EB0C031B024FEAE37C03EB1C631B1207
:103DD000322B0BDA3A70AB7B90F80AC063457FF662
:103DE0006DAF06EB42025278202AC6D102B050468F
:103DF000BDE8F08F70B5B949B94A01EB001454F829
:103E0000041F607A002852F8202011440CBF0420BF
:103E10000220084420F07F4001F06EFA94F9085027
:103E2000B04A44190021101A71EB010038BFFFDFBE
:103E3000AD488542C8BFFFDFAC488542B8BFFFDF51
:103E4000AB488442A8BFAB4803DA002CB8BFA848EF
:103E500000DA2418204670BD2DE9F04F0446A6482C
:103E600087B00068C005C00D11D0103840B20028DE
:103E7000B8BF00F00F0000F1E020ACBF90F80004E4
:103E800090F8140D400908BF4FF0010B01D04FF01E
:103E9000000B2078002804BF984D994E40F0D78041
:103EA00026B1002140F2D640AFF3008095F82D7086
:103EB000002085F82300824626B1002140F2DB4035
:103EC000AFF30080BBF1000F1FD1B846012020EAFC
:103ED00008078148402200EB881100EB87100AF0A8
:103EE0000EFB26B1002140F25F40AFF3008005EBEE
:103EF000880105EB8700D1F82510C0F8251026B100
:103F0000002140F26340AFF3008026B1002140F26F
:103F1000E340AFF3008001F05EF98046CDF80CD0AD
:103F20002078002860798DF80A0020798DF8090042
:103F300007D095F82E0020281CBF2869401D07D007
:103F40000BE0D4E902232179039800F0DAFF3AE08C
:103F50006C4808F105014078084420F07F49217938
:103F60000022A368039800F0CCFFDDE90010401A9E
:103F7000484420F07F400190CDF80090D4E902320F
:103F8000217904A800F0BDFF3946DDF814900398AC
:103F9000FFF7F5FD00980199A0EB080020F07F40A5
:103FA000A1EB080121F07F41B0F5800F01D28945D6
:103FB00009D2DDE90010401A404428F07F4120F08A
:103FC0007F40CDE9001026B1002140F2E940AFF377
:103FD000008095F82E00202814D028690099091A2D
:103FE0000902CA1701EB126109120BD5DDE90021A4
:103FF000891A20F07F42084420F07F40CDE900205C
:104000004FF0010A26B1002140F2F340AFF30080E7
:1040100095F8230000287FF443AF26B1002140F239
:10402000F940AFF3008001F0D6F80099019B091A1E
:10403000181A354A21F07F4120F07F40B1F5800FFA
:1040400005D2824203D3BBF1000F0AD103E007B0CF
:104050000020BDE8F08F39466846FFF790FD4AEA38
:10406000000ABAF1000F2CD09DF809001C4A0099F3
:10407000002852F8202011440CBF042002200844DC
:1040800020F07F4001F038F99DF90870154AC519F4
:104090000021101A71EB010038BFFFDF1248874280
:1040A000C8BFFFDF11488742B8BFFFDF1048854215
:1040B000A8BF104803DA002DB8BF0D4800DA2D184C
:1040C000A56026B1002140F20C50AFF3008007B08C
:1040D0000120BDE8F08F0000DC040020DC0200209D
:1040E000D82F0000FF7F841E0020A10700E05EF8AB
:1040F0000080841E00807BE104ED00E05C05002070
:104100000000000079000020FFFF3F002DE9F34F81
:10411000F94891B088460068F84DC005C00D0ED032
:10412000103840B20028B8BF00F00F0000F1E020C6
:10413000ACBF90F8000490F8140D40092AD098F80C
:1041400000004FF0000B00281CBF0128FFDFEC4CE3
:104150002CB14FF0000140F28250AFF30080E949EA
:1041600011984FF0010A01EB0010039024B10021D7
:1041700040F28A50AFF30080BAF1000F17D000BFB1
:1041800095F82D604FF0000985F82390BBF1000FE2
:1041900014D03DE095F82E004FF0010B202808BF09
:1041A000FFDF98F80000002818BFFFDFCFE7D648F0
:1041B000002818BFAFF3008062B6E1E73746012060
:1041C00020EA0706D148402200EB871100EB861059
:1041D0000AF095F924B1002140F25F40AFF300806E
:1041E00005EB870105EB8600D1F82510C0F82510F6
:1041F00024B1002140F26340AFF3008024B10021DC
:1042000040F29450AFF3008095F823000028ADD120
:1042100024B1002140F29E50AFF3008000F0DBFF9C
:104220000746CDF810D098F80000002898F805004F
:104230008DF80A0098F804008DF8090007D095F869
:104240002E0020281CBF2869401D08D00BE0D8E9AB
:10425000022398F80410049800F053FE3AE0AC48AA
:104260004178781D084420F07F4A98F80410002215
:10427000D8F80830049800F044FEDDE90010401A38
:10428000504420F07F400190CDF800A0D8E90232E0
:1042900098F804100CA800F034FE3146DDF834A084
:1042A0000498FFF76CFC0099019AC91BD01B21F000
:1042B0007F4120F07F40B1F5800F01D2824509D2C5
:1042C0001046009A801A384427F07F4220F07F4041
:1042D000CDE900200398C07B00F001008DF80B00B1
:1042E00024B100214FF4B560AFF30080874A39460E
:1042F000DDF844A002EB8617684617F81A20012A59
:1043000018BF022A3ED1009ADDF804C0A2EB0102D8
:10431000804B22F07F42ACEB010121F07F41012A6A
:104320006BD3B2F5800F68D28B4266D34FF0010990
:104330000DAB0CAA314600F05DFD002865D09DF85C
:1043400034209DF830108A4263D03346052000F0B7
:1043500015FD00BF07EB4A0148709DF8300020288A
:1043600003BF05EB860080F825A080F8289007EBB6
:10437000400018BF80F801A0324651465FF00300AC
:10438000FFF766F805EB860090F8287024B100214D
:1043900040F2AF50AFF300805F48002818BFAFF382
:1043A0000080EFF3108000F0010A72B624B1002102
:1043B00040F2B550AFF3008095F8230000287FF459
:1043C000D5AE24B1002140F2BD50AFF300809DE88E
:1043D0000F00B9F1000FDA60C3E9010140D024B148
:1043E000002140F2CA50AFF3008037EA0B0029D019
:1043F00095F82E00202816D024E03246514604209D
:10440000FFF726F84FF00109BCE732465146042079
:10441000B6E7202919BF07EB4100407805EB86007D
:1044200090F8250096E724B1002140F2CF50AFF379
:1044300000803046FFF70BF920B998F80000E8B388
:10444000012849D024B1002140F2EC50AFF30080A4
:1044500085F82D60012085F8230000BF4FF0010989
:1044600024B1002140F2F550AFF30080BAF1000F03
:104470003BD024B1002140F2F950AFF30080B9F1F4
:10448000000F11D095F82D0005EB800090F8260064
:10449000202809D024B100214FF4C060AFF3008080
:1044A0001E484078FEF7B4FB24B1002140F20560BD
:1044B000AFF3008013B04846BDE8F08FFFE724B1AA
:1044C000002140F2D750AFF3008095F82D20042052
:1044D0001199FEF7BDFFC1E7002C3FF447AE002164
:1044E00040F2E250AFF3008040E60748002818BFD2
:1044F000AFF3008062B6BCE704ED00E05C0500208D
:1045000000000000DC02002000000000DC040020AD
:1045100079000020FFFF3F0000000000770000202E
:104520002DE9F14FF84D8CB095F82D000020099041
:104530000120F64CA5F180074FF0000B8246089051
:1045400024B1002140F21360AFF300800898A0B3BB
:1045500085F823B024B100214FF4C360AFF300808D
:1045600095F82D8040222AEA080607EB861007EB13
:104570008811814609F0C3FF24B1002140F25F4059
:10458000AFF3008005EB860005EB88010090D1F8C1
:104590002510C0F8251024B1002140F26340AFF38C
:1045A000008095F8230080B1002C1CBF002140F250
:1045B0001E60C5D0AFF30080C2E7FFE7D4480028F3
:1045C00018BFAFF3008062B6C2E724B1002140F209
:1045D0002260AFF300800C9819F8100003286DD109
:1045E000DDF80080CDF818800C9998F825008842F5
:1045F00014BF4FF000094FF0010908F1250C864661
:10460000202207EB861303E0024603EB42004078CA
:10461000884202D020280AD0F6E7202807D0864515
:1046200007D103EB4E0040788CF8000007E05846B5
:104630000CE003EB400003EB42014078487024B1EA
:10464000002140F2E530AFF30080504610EA090F38
:104650001CBF88F828A085F81EB078B324B10021CB
:1046600040F22760AFF30080324601200C99FEF73C
:10467000EFFE069890F8288024B1002140F23260C5
:10468000AFF30080A348002818BFAFF30080EFF31A
:10469000108000F0010072B6089024B1002140F2B1
:1046A0003760AFF3008095F8230040B1002C1CBFA9
:1046B000002140F23B603FF443AF7BE716E0B8F1E6
:1046C000000F07D095F82E00202803D13046FEF7C2
:1046D000BEFFE8B124B1002140F24F60AFF300808B
:1046E00085F82D6085F823A00120099024B10021D0
:1046F0004FF4CB60AFF30080089888B124B100215B
:1047000040F25C60AFF3008009980DB0BDE8F08F17
:10471000002CF1D0002140F24A60AFF30080E6E7C0
:104720007B48002818BFAFF3008062B6E6E70020A0
:1047300000F094BC012000F091BC774800787047ED
:104740002DE9F05FDFF8D4B10027ABF50079012542
:1047500009F5207480B1012853D0022800F0E480CC
:1047600003281CBFFFDFBDE8F09F94F82E0020282F
:1047700040F0FE8000F0DEB894F8240018B9FCF791
:1047800079FE84F8245094F82E0020281CD194F847
:104790002D8004EB880A9AF82560202E08BFFFDFE1
:1047A0000BEB881000EB460040788AF825008AF869
:1047B000285084F82350314684F82E604246022067
:1047C000FEF746FE84F82270207E002818BFFFDF27
:1047D00084F82150002000F051FCA168B1F1FF3FA6
:1047E00004D001230022184600F091FC94F82E001A
:1047F00094F82E1009EB01110A68BDE8F05F012161
:10480000104794F82E0020281CD194F82D8004EB3A
:10481000880A9AF82560202E08BFFFDF0BEB88106E
:1048200000EB460040788AF825008AF8285084F882
:104830002350314684F82E6042460220FEF708FEDF
:1048400084F82270012000F019FC94F8210000285F
:104850001CBFA068B0F1FF3F0BD094F82E0094F875
:104860002E1009EB01110A68BDE8F05F4FF0060158
:104870001047207E2A4E01280AD002281CBFFFDFE5
:10488000BDE8F09F84F8205094F8240010BB1DE090
:10489000A77700F005FD3078032804BF65772577FA
:1048A000607D204951F8200094F8201059B950B18A
:1048B00061680123091A0022184600F028FC022032
:1048C0002076BDE8F09F2776BDE8F09FFCF7D2FD8B
:1048D00084F82450A07F002808BF277608D071787C
:1048E00060680123411A0022184600F010FC25766A
:1048F00094F82E0094F82E1009EB01110A68BDE817
:10490000F05F0021104700005C050020000000005F
:10491000000000000000000077000020DC04002000
:1049200079000020D82F0000FE480078BDE8F05F35
:10493000FEF76EB994F82D8004EB880A9AF825608A
:10494000202E08BFFFDF0BEB881000EB46004078FD
:104950008AF825008AF8285084F8235084F82E60BD
:10496000424631460220FEF773FD84F8227000BFF4
:1049700094F82E0094F82E1009EB01110A68BDE896
:10498000F05F0521104710B5E74C94F82E00202861
:1049900008BFFFDF94F82E0094F82E10E34A02EBD4
:1049A00001110A68BDE810400421104730B5DE4C03
:1049B000054683B094F82E00202808BFFFDFA068CA
:1049C000B0F1FF3F18BFFFDF94F82E0001AAD749CE
:1049D00001EB0010694690F90C00284400F099FCA6
:1049E0009DF904000F28CCBF012000200099084445
:1049F0006168084420F07F41A16094F821000028FC
:104A000004BF03B030BD012303B00022BDE8304035
:104A1000184600F07CBBC64A0B1A02F1010CB3EB3E
:104A20009C0F3CBF1846704710B5441AB4EB9C0F5E
:104A30003CBF184610BD9A4203D2101A0844401CCD
:104A400010BD94429EBFFFDF002010BD511A0844E4
:104A5000401C404210BD012300220146022000F00C
:104A600056BB022000F00ABB00F0B5BB2DE9F043B5
:104A7000AD4C054683B094F82E00202808BFFFDF18
:104A8000642D57D3AB490020491B804152D394F881
:104A90002E00DFF8988294F82D7008EB001920683A
:104AA00001AA2844694600F034FC9DF9040000285E
:104AB00002DD0098401C0090D9F808000099D9F850
:104AC00004204618B21A22F07F42B2F5800F31D28C
:104AD00004EB870292F82520202A0AD008EB021264
:104AE0005268101A0002C21700EB126000128842CE
:104AF00020DBA068B0F1FF3F10D000F06CFBA16894
:104B0000081A0002C11700EB11600012022811DD23
:104B1000012000F0B3FA4FF0FF30A0602068284475
:104B2000206026F07F402061012084F8230003B03C
:104B3000BDE8F08303B00020BDE8F0832DE9F05F0D
:104B4000794D804695F82D00A5F1800707EB801080
:104B500010F81800002808BFFFDF95F82D90764E5A
:104B600026B1002140F66F00AFF3008007EB8914F7
:104B700014F81800012817D0C0B204281CBF05285B
:104B800006284FD02EB14FF0000140F67B00AFF366
:104B9000008020BF26B1002140F68400AFF30080E2
:104BA00014F818000128E7D1012426B1002140F6AD
:104BB0008B00AFF30080A4B3002085F8230026B15A
:104BC00000214FF40960AFF3008095F82DB001206B
:104BD00020EA0B0907EB8B1107EB8910402209F043
:104BE0008EFC26B1002140F25F40AFF3008005EB60
:104BF0008B0005EB890AD0F82500CAF8250026B1FC
:104C0000002140F26340AFF3008095F82300B0B17B
:104C1000002E1CBF002140F69600C6D0AFF30080E6
:104C2000C3E705E04A4641460120FEF711FCB1E723
:104C30004248002818BFAFF3008062B6BCE726B137
:104C4000002140F69A00AFF300809AF826300AF16E
:104C5000260140461C464FF0200B07EB89120AF153
:104C6000270A04E0A34602EB4B0C9CF80140844267
:104C700002D0202C2BD0F5E7202C28D0A34204D141
:104C800002EB43004078087005E002EB440002EBC1
:104C90004B0140784870BAF1000F11D026B10021C5
:104CA00040F2DD30AFF300809AF80000A04207D157
:104CB00026B100214FF47870AFF300808AF800B07D
:104CC0005EB1002140F2E530AFF3008000E026B194
:104CD000002140F69E00AFF300801948002818BF5D
:104CE000AFF30080EFF3108000F0010472B695F886
:104CF000230038B1002E1CBF002140F6A4003FF471
:104D000054AF8BE785F82D90012085F82300DCB1A6
:104D1000002E08BFBDE8F09F002140F6B100AFF3C0
:104D200000800FE0770000205C050020DC020020FE
:104D3000FF7F841EFF1FA10700000000000000008D
:104D400000000000BDE8F09F8E48002818BFAFF3B8
:104D5000008062B6DCE730B504468B480D4690F81B
:104D60002D008A4901EB801010F81400002808BFBC
:104D7000FFDF874800EB0410C57330BDF0B51F4658
:104D800014460E460546202A08BFFFDF7F487E49AD
:104D900000EB871202EB440001EB8703202E23D0A7
:104DA00002EB4601407891F801C04870202160462E
:104DB000202C06D0014602EB4100A142057040784C
:104DC000F8D193F82740202C1ABF02EB440484F852
:104DD00001C083F826C04FF0200C02EB410282F89C
:104DE00001C083F82710F0BD93F825C0407883F800
:104DF0002500DBE72DE9F003DFF88CC120250CEB63
:104E0000810C9CF825C01570BCF1200F08BF1D70E7
:104E100073D05F4C5F4E04F5007505EB811700BF42
:104E200004EB0C110D1D8968D0F80080A8EB01017E
:104E300009024FEAE17901EB1961091223D4417AA1
:104E4000A9B195F80990B9F1000F10D156F82110C9
:104E50002D684144D6F80080891C45442D1D491B0E
:104E60000902CD1701EB1561091232290BDB07EBA3
:104E70004C0182F800C091F801C0BCF1200FCFD1E5
:104E800015781D7039E015781D70BCF1200F34D0F5
:104E900004EB0C124568D2F80480111DA8EB05053F
:104EA0002D024FEAE57905EB19652D1214D4497AE4
:104EB00019B3457A0DBB56F8211005684144D6F860
:104EC0000080891C45442D1D491B0902CD1701EBAB
:104ED00015610912322910DA83F800C0917B827AB9
:104EE000914203D8BDE8F0030020704707EB4C0166
:104EF00091F801C0BCF1200FCAD1BDE8F003012038
:104F0000704770B51D4613460E46044600F1080270
:104F1000014682B0184600F0FCF994F908000F2809
:104F200004DD1F3820722068401C2060002E0CBF5A
:104F300004200220174951F82610461820686946B7
:104F4000801B20F07F40206094F908002844C01C9A
:104F50001F28B8BF012009DB01AA00F0DAF99DF88B
:104F6000040000281CBF0098401C00D0009000994D
:104F7000206831440844C01C20F07F40606002B0CB
:104F800070BD0000000000005C050020DC04002073
:104F9000DC020020D82F000010B44FF0E0224FF4C4
:104FA00000634FF0010C0021C2F8803102F5C0729D
:104FB000BFF34F8FBFF36F8FDC101460BFF34F8FC1
:104FC000BFF36F8FE64880F80014C01E80F800140D
:104FD000E448C0F804C0C0F808C0C0F84011C0F8E8
:104FE0004411C0F84811C2F80031C2F8004142F83B
:104FF000803CC0F800C010BC704730B401204FF0B6
:10500000E022C5024FF0000CC2F88051BFF34F8F71
:10501000BFF36F8F0402C2F88041BFF34F8FBFF31D
:105020006F8FD04B58609860CF4801680029FCD141
:10503000C3F840C1C3F844C1C3F848C1C2F88052A4
:10504000C2F8804230BC70474FF0E0204FF400615E
:10505000C0F88012C910C0F880127047002804BF41
:10506000C2487047012804BFC1487047022804BFE6
:10507000C048704700B5FFDF002000BD08B5B94942
:10508000002298B1012834D002281CBFFFDF08BDE0
:105090004FF48020C1F80803C1F84803B648026005
:1050A000C1F84821B3480068009008BD4FF4803033
:1050B000C1F80803C1F84803B04B1A60C1F8402199
:1050C000AF4BC1031960AF49C1F80803AE48026095
:1050D000C1F840214FF0E0238015C3F88001C431AE
:1050E000BFF34F8FBFF36F8FC1F83C21A748027009
:1050F00008BD4FF40030C1F80803C1F84803A448C4
:105100000260C1F844219A480068009008BD70B55B
:10511000DFF850C2042600240125B0B1012849D08F
:1051200002281CBFFFDF70BD9A4A4FF48020012B7C
:10513000C2F8401518BFCCF80803C2F8404108BFB8
:10514000CCF80403CCF8440370BD881E20F07F40E7
:10515000CCF840054FF48030CCF80803CCF840413F
:10516000CCF84403012B18BF002388494B70854BB2
:105170001D61DFF824C2CCF80040884C4FF0020CCF
:10518000C4F800C0DFF818C2CCF80060DFF8F8C13E
:105190003D32CCF800204A604FF0E02C9A15CCF854
:1051A0008022C3F80403CCF80021D0057D4A1060AA
:1051B0000D7070BD7C484FF40032012BC0F84015D3
:1051C00018BFCCF80823C0F8404108BFCCF804232E
:1051D000CCF8442370BD64480068704770B5614CDA
:1051E000D4F84001002501280AD1D4F8080310F4AE
:1051F000803F05D04FF48030C4F80803C4F8405114
:10520000D4F8440101280DD1D4F8080310F4003F6C
:1052100008D04FF40030C4F80803C4F8445101200A
:10522000FFF78EFAD4F84801012818BF70BDD4F8F2
:10523000080310F4802F08BF70BD4FF48020C4F81D
:105240000803C4F84851BDE870400220FFF778BA5F
:105250004E49087808B34A4A4FF000401060494A66
:10526000C00BC2F80803484B00201860C2F8400188
:105270004FF0E02C9315CCF88031C432BFF34F8F40
:10528000BFF36F8FC2F83C0108704A78002A08BF4C
:10529000704748700020FFF753BA0320FFF750BA59
:1052A0004FF0E0214FF40010C1F8000270474FF0BA
:1052B000E0214FF40010C1F880027047314901200D
:1052C00008614FF0E0210002C1F8800270472D49CB
:1052D0004FF47C10C1F8080300200146820002F15F
:1052E000804202F50042C2F84015C2F84011401C4D
:1052F000C0B20628F2D37047410A43F6095251431F
:10530000C0F3080010FB02F000F5807001EB5020A4
:105310007047430B48F2376C03FB0CF31B0C4FEA4E
:10532000432CC1F800C0DFF884C003FB0C03204805
:105330004CF2F72C5843400D10FB0CFC0CEB4323B4
:1053400003F580735B1213700A681044086070479D
:105350000E48406870470B490120C1F800027047B1
:105360000BE000E000B0004004B500404081004088
:1053700044B1004048B1004048B5004040B500404D
:1053800008F5014000800040408500407C0000207E
:1053900044B5004008B00040048500400885004046
:1053A0001085004004F5014004B00040F7C2FFFF43
:1053B0006F0C010007F0C8BCFD4810B5017800294A
:1053C0000ED101210170FB4880F8391000F0FBFF7D
:1053D000F94801F0A0FCBDE81040012003F0EBBD4E
:1053E00010BDF3480178002907D000210170F14871
:1053F00080F83910012003F0DEBD7047EC4810B58D
:10540000007850B101F055FC044601F0D7FD0020B2
:1054100003F0D1FD1CB1002010BD022010BD0D20F5
:1054200010BD70B516460D46044600F038FE38B97A
:10543000284600F034FE18B9304600F030FE08B1BE
:10544000072070BD304604F08EFDC0F3072129709F
:10545000207009B1002070BD052070BD2DE9F0411C
:105460000446D6481D46164600780F46401E844224
:1054700003DD44F23300BDE8F081072E02D944F287
:105480002900F8E701F0F5FB30B1324639462046F5
:1054900004F044F810B107E00320ECE72946204669
:1054A00004F0A8F80028E6D040F48040E3E7C349C0
:1054B00010B50978491E884202DD44F2330010BD60
:1054C00004F0D5F80028FAD040F4804010BDBB4A63
:1054D00010B51278521E904202DD44F2330010BD26
:1054E00002F064FA0028FAD040F4804010BDB349BD
:1054F00010B50978491E884202DD44F2330010BD20
:1055000004F0C9F80028FAD040F4804010BD10B56E
:1055100000B1012004F008F9002801D040F48040D7
:1055200010BD70B50446A5480E4615460078401ECD
:10553000844202DD44F2330070BD104600F0AFFD3E
:1055400008B1072070BD2B4632460021204602F0EC
:105550002DFB502802D040F4804070BD002070BD6B
:1055600070B5044695480E4615460078401E8442A4
:1055700002DD44F2330070BD104600F090FD08B12A
:10558000072070BD2B463246A021204602F00EFBBC
:10559000502802D040F4804070BD002070BD2DE93D
:1055A000F041044685481E460F4600781546401EC9
:1055B000844202DD44F233005DE7104600F06FFDE7
:1055C00008B1072057E733462A463946204603F0FC
:1055D000F3F9502802D040F480404CE700204AE71D
:1055E00010B5044600F05BFD08B1072010BD204651
:1055F00003F044FA0028F9D040F4804010BD10B503
:1056000003F048FA002801D040F4804010BD70B586
:1056100005466A480C460078401E854202DD44F289
:10562000330070BD084600F03AFD08B1072070BD98
:10563000284604F0AFF82070002070BD10B504F0CB
:10564000EDF9002010BD7CB505460C46072802D9AF
:1056500044F229007CBD084600F021FD08B1072076
:105660007CBD20680090606801906946284603F080
:1056700025F800207CBD514A10B5137844F233025E
:105680005B1E984202DC8B1E4F2B01D3104610BDCF
:1056900002F002F8002010BD70B5054647480C46E0
:1056A0000078401E854202DD44F2330070BD08469A
:1056B00000F0F5FC08B1072070BD284602F082FD1D
:1056C0002070002070BD3D4B10B51B785B1E9842CA
:1056D00002DD44F2330010BD02F055FD002010BD84
:1056E000364B10B51B785B1E984202DD44F2330046
:1056F00010BD02F090FD002010BD304A10B51278A8
:1057000044F23303521E904204DC19B103F07FFED1
:10571000002010BD184610BD70B5054627480C4640
:105720000078401E854202DD44F2330070BD084619
:1057300000F0B5FC08B1072070BD284603F088FED4
:105740002080002070BD38B51C4C2478641EA04217
:1057500002DD44F2330038BD8DF80010090A8DF8DF
:1057600001108DF802208DF80330694603F01FFE0A
:105770000028F0D040F4804038BDF8B507460F4807
:105780001C46154600780E46401E874202DD44F254
:105790003300F8BD084600F082FC38B9284600F016
:1057A0007EFC18B9204600F07AFC48B10720F8BD0D
:1057B000980000208C050020B5530000BD0000209B
:1057C0006946384603F0AAFD9DF800009DF80110D7
:1057D00040EA012030809DF8020028709DF8030007
:1057E00020700020E3E7FC4A10B51278521E904268
:1057F00002DD44F2330010BD03F03AFE002010BD7C
:10580000F54A10B51278521E904202DD44F2330080
:1058100010BD03F028FE002010BDEF4A10B512782D
:10582000521E904202DD44F2330010BD03F02AFE06
:10583000002010BDE84A10B51278521E904202DDD9
:1058400044F2330010BD03F02BFE002010BD70B5F4
:105850000546E1480C460078401E854202DD44F2D0
:10586000330070BD084600F01AFC08B1072070BD77
:10587000284603F01BFE2070002070BDD64A10B5EC
:105880001278521E904202DD44F2330010BD03F044
:10589000E4FD002010BD70B50C46054600F0FFFB8E
:1058A00008B1072070BD2146284604F01DF90028E4
:1058B000F8D040F4804070BD70B505460C460846EF
:1058C00000F0EDFB08B1072070BD2146284604F02A
:1058D00042F90028F8D040F4804070BD10B503F0C4
:1058E000F1FC002801D040F4804010BD10B503F059
:1058F000F2FC002010BD10B5044600F0D0FB08B14A
:10590000072010BD03F0EDFC2070002010BD7CB519
:105910000646B14815460C460078401E864202DD18
:1059200044F233007CBD084600F0B9FB08B1072003
:105930007CBD20788DF8000060788DF80100A0789B
:105940008DF80200E0788DF803008DF80450694668
:10595000304603F0C3F80028EAD040F480407CBD14
:1059600008B59D4B1B785B1E984202DD44F2330064
:1059700008BD8DF800108DF80120694603F094F8F9
:105980000028F5D040F4804008BD10B5924C247832
:10599000641EA04202DD44F2330010BD03F0C9F8DA
:1059A000002010BD10B503F0B9F8002010BD38B5C7
:1059B000044600F074FB08B1072038BD684603F0C8
:1059C000B1F89DF800009DF8011040EA0120208008
:1059D000002038BD70B505460C46084600F05FFB58
:1059E00008B1072070BD2146284604F047FC002876
:1059F000F8D040F4804070BD70B505460C460846AE
:105A000000F04DFB08B1072070BD2146284604F088
:105A100045FC0028F8D040F4804070BD6E4A10B5B7
:105A20001278521E904202DD44F2330010BD04F0A1
:105A300045FC0028FAD040F4804010BD10B5664CFB
:105A40002478641EA04202DD44F2330010BD04F04D
:105A500045FC0028FAD040F4804010BD70B50546E2
:105A60000C46084600F01BFB08B1072070BD21461C
:105A7000284604F02AFD0028F8D040F4804070BD8C
:105A800070B505460C46084600F009FB08B1072032
:105A900070BD2146284604F039FD0028F8D040F4B6
:105AA000804070BD70B505460C46084600F0F7FA18
:105AB00008B1072070BD2146284604F03AFD0020B9
:105AC00070BD10B504F047FD002801D040F48040BF
:105AD00010BD70B50C46054600F0E1FA18B9204635
:105AE00000F0DDFA08B1072070BD2146284604F019
:105AF0005AFD002070BD70B50646374814460D4665
:105B00000078401E864202DD44F2330070BD3DB194
:105B1000084600F0C4FA60B9686800F0C0FA40B9FD
:105B20004CB1204600F0BBFA18B9606800F0B7FA33
:105B300008B1072070BD25B1297830466A6803F0A6
:105B400071F824B121783046626803F0F8F800203B
:105B500070BD70B50646204814460D460078401EBC
:105B6000864202DD44F2330070BD3DB1084600F0CC
:105B700096FA60B9686800F092FA40B94CB12046D4
:105B800000F08DFA18B9606800F089FA08B10720B2
:105B900070BD25B1294630466A6803F08AF824B101
:105BA00021463046626803F0E6F8002070BD10B56B
:105BB00004460A48007898B101F07BF801F0FEF93C
:105BC000204603F0F7FA68B10349207808700020F6
:105BD00003F0F1F9002010BDBD0000209800002066
:105BE0000220F8E70720F6E710B5044600F057FA60
:105BF00008B10720EFE703F077FB20700020EAE709
:105C000010B5044600F04BFA08B10720E3E703F0B3
:105C100070FB20700020DEE770B50546FB480C469F
:105C20000078401E854202DD44F2330070BD084614
:105C300000F035FA08B1072070BD284603F05FFB7D
:105C40002070002070BD70B50546F0480C46007805
:105C5000401E854202DD44F2330070BD084600F06C
:105C60001EFA08B1072070BD284603F04EFB2070D5
:105C7000002070BD10B502F068FA0020ABE710B547
:105C800002F06AFA0020A6E710B5044600F007FA11
:105C900008B107209FE7DE480021425C6254491C9E
:105CA000C9B21429F9D3002095E710B5044600F0D5
:105CB000F6F908B107208EE7D448B22100782070A9
:105CC000082060700020A070E170362121716071A1
:105CD000FD20A071E0710F20207200207BE72DE9EC
:105CE000FE431F46164680460C004FF0060504D0C2
:105CF000084600F0D4F900287BD126B1304600F0E8
:105D0000CEF90028F8D127B1384600F0C8F90028AC
:105D1000F2D1BE4844F23301B8F1130F6BD2DFE881
:105D200008F06A6A0A0E1A26404D54597A8C99ED89
:105D3000ECEBEAE9E800207804F03DFC3DE1007876
:105D40002278401E824251DC301E52D0018810461B
:105D500004F03BFC31E100782278401E824245DCB1
:105D6000002EF2D0104604F041FC308025E1002CDA
:105D7000EBD0207802283CD8FDF719F810B1207834
:105D80000128F8D8207804F0A6F8607800284FF0B1
:105D9000200003D003F096FA60BB0EE103F09BFAFB
:105DA0000BE1002CD1D004F099F8207003F099FA9F
:105DB000C04340F34010401C6070FEE0200018D04B
:105DC00002789AB104F08DF8F7E0200011D004F0C9
:105DD00091F8F2E0002C0CD0002E0AD0002F08D051
:105DE000007824783678401E844205DD0846BDE8F8
:105DF000FE836BE00CE0E1E0384600F050F900284B
:105E000064D13A463146204604F07DF850286FD0E0
:105E100040F48040EBE7002534B1207800B1012048
:105E200003F003FE10B1C5E00725C7E0607803F07A
:105E300023FE608803F035FEC0E00025002CF3D07F
:105E400003F026FE207003F027FE607003F041FE91
:105E50006080B3E0684601F05FF903F045FA10B1E5
:105E600044F21500C3E78CB3E279217A8A422DD03F
:105E7000142A01D3012000E00020142901D30123BA
:105E800000E00023184321D1A779082F1ED266789D
:105E90002579AE4202D14FF0010C01E04FF0000C29
:105EA0002078E37800EA03081CEA080F70D1202E5E
:105EB00002D34FF0010C01E04FF0000C10EA0C0F80
:105EC00066D1202D03D34FF0010C02E060E04FF0CB
:105ED000000C13EA0C0F5BD19DF800C0BCF1000F61
:105EE00027D030B39DF80100864208D0012007E09A
:105EF00063E08FE07DE06FE062E04BE043E0002094
:105F00009DF80660B74201D0012600E0002630432C
:105F10009DF80760B24201D0012600E00026304320
:105F20009DF80860B14201D0012600E00026304310
:105F300023D19DF8030010B30BB39DF804008542F4
:105F400001D0012000E000209DF806309F4201D0E2
:105F5000012300E0002318439DF807309A4201D046
:105F6000012200E0002210439DF80820914201D058
:105F7000012100E00021084301D0082037E7204636
:105F800001F08FF819E0200002D001F0C5F814E00C
:105F900007202CE7002C3FF447AF002EFBD02278DF
:105FA0000078824201D30D4608E03178104602F0B5
:105FB00020F910B140F4804500E00025284616E79E
:105FC000002CE8D0002EE6D0227800788242EAD277
:105FD000104602F01AF928E0002CDCD0002EDAD0AE
