:1010000000000420F9120000211300002313000047
:101010002513000027130000291300000000000022
:101020000000000000000000000000002B13000082
:101030002D130000000000002F13000031130000EA
:101040003313000033130000331300003313000088
:101050003313000033130000331300003313000078
:101060003313000033130000331300003313000068
:101070003313000033130000331300003313000058
:101080003313000033130000331300003313000048
:101090003313000033130000331300003313000038
:1010A0003313000033130000331300003313000028
:1010B00033130000331300000000000000000000A4
:1010C0003313000033130000331300003313000008
:1010D00033130000331300003313000033130000F8
:1010E000331300003313000033130000000000002E
:1010F0000000000033130000000000003313000064
:1011000000000000000000000000000000000000DF
:1011100000000000000000000000000000000000CF
:1011200000000000000000000000000000000000BF
:1011300000000000000000000000000000000000AF
:10114000000000000000000000000000000000009F
:10115000000000000000000000000000000000008F
:10116000000000000000000000000000000000007F
:10117000000000000000000000000000000000006F
:10118000000000000000000000000000000000005F
:10119000000000000000000000000000000000004F
:1011A000000000000000000000000000000000003F
:1011B000000000000000000000000000000000002F
:1011C000000000000000000000000000000000001F
:1011D000000000000000000000000000000000000F
:1011E00000000000000000000000000000000000FF
:1011F00000000000000000000000000000000000EF
:101200000348044B834202D0034B03B11847704795
:101210007800002078000020000000000548064902
:101220000B1AD90F01EBA301491002D0034B03B1F4
:101230001847704778000020780000200000000068
:1012400010B5064C237843B9FFF7DAFF044B13B10E
:101250000448AFF300800123237010BD7800002004
:10126000000000006019000008B5044B1BB10449E0
:101270000448AFF30080BDE80840CFE7000000005D
:101280007C00002060190000A3F5803A704700BF81
:10129000154B002B08BF114B9D46FFF7F5FF0021B2
:1012A0008B460F461148124A121A00F04FFA0C4BA7
:1012B000002B00D098470B4B002B00D09847002004
:1012C000002104000D000B4800F0E8F900F01AFAC4
:1012D0002000290000F02EF800F0E6F900000800D8
:1012E0000000000000000000000004207800002042
:1012F00014020020D11600000649074A074B9B1A2A
:1013000003DD043BC858D050FBDC00F025F9FFF7A3
:10131000BFFF00006C1900000800002078000020CA
:10132000FEE7FEE7FEE7FEE7FEE7FEE7FEE7FEE795
:10133000FEE7FEE72DE9F041012000F0D1F80020A2
:1013400000F0F8F84FF01023D3F80022002AC0F282
:1013500088805149514AC1F110251435081D01F109
:10136000EC070C462B5944F8043FD2F80034002B0C
:10137000FBD0BC42F6D14FF010234FF00208DFF84B
:101380001CE1D3F80042D3F80442D3F808C2D3F8E2
:101390000C62D3F81052D3F80443C2F80485DEF887
:1013A0000034002BFBD001223C4BCEF81425D3F89F
:1013B0000024002AFBD00122DFF8E0E0C3F8042576
:1013C000DEF80034002BFBD0C0F11020334A14307B
:1013D00001E0B9420BD051F8043FB3F1FF3FF8D020
:1013E0004350D2F80034002BFBD0B942F3D1BCF10A
:1013F000FF3F08D04FF01023284AC3F808C2D2F8A4
:101400000034002BFBD0711C08D04FF01023234A6E
:10141000C3F80C62D2F80034002BFBD06A1C08D051
:101420004FF010231D4AC3F81052D2F80034002B9D
:10143000FBD0631C08D04FF01023184AC3F80443B4
:10144000D2F80034002BFBD0BFF34F8F1449154B5B
:10145000CA6802F4E0621343CB60BFF34F8F00BF52
:10146000FDE7D3F80432002BBFF673AF00200E4D1A
:1014700000F068F845F001050026304600F016F847
:101480004FF4FA744FF47A40A847013CFAD1013680
:10149000032EF2D1F0E700BF9000002000E00140F1
:1014A00000ED00E00400FA05501900000A4B185C3A
:1014B0001F288ABF09494FF0A04100F01F00D1F852
:1014C00004350122824022EA03001340C1F80805D6
:1014D000C1F80C35704700BF5819000000030050D8
:1014E000C10707D4830742BF4FF0A0430C22C3F8C3
:1014F000482770474FF0A043032230B44FF080716B
:10150000C3F858274FF48005C3F85C274FF4000454
:10151000C3F860278207C3F80855C3F80845C3F825
:10152000081504D54FF0A0430C22C3F8482730BC5F
:10153000704700BF72B6024A1368013313607047E8
:1015400080010020034A1368013B136003B962B6AF
:10155000704700BF8001002010B44FF080414FF071
:1015600080520020C1F80C01404BC1F81001C1F8B5
:101570003805D2F80414C3F82015D2F80814C3F8BB
:101580002415D2F80C14C3F82815D2F81014C3F897
:101590002C15D2F81414C3F83015D2F81814C3F867
:1015A0003415D2F81C14C3F84015D2F82014C3F82F
:1015B0004415D2F82414C3F84815D2F82814C3F8F7
:1015C0004C15D2F82C14C3F85015D2F83014C3F8C7
:1015D0005415D2F83414C3F86015D2F83814C3F88F
:1015E0006415D2F83C04C3F86805D2F840042049D9
:1015F000C3F86C050968D2F84424C3F8702508299B
:101600001AD04FF08043D3F80024D20744BF6FF0C4
:101610000102C3F80024174AD2F8883043F470035B
:10162000C2F88830BFF34F8FBFF36F8F124B134A4E
:101630001A605DF8044B7047114B1B68002BE0D11A
:101640001048114A114C04601149124BFB20C2F89A
:1016500018050A681B68104822F00F0203F00F03F8
:1016600013434FF400720B600260CAE700C00040F1
:101670003001001000ED00E0080000200090D003D1
:10168000340100108C56004000F0004048810300F7
:10169000E40E00405802001040960240002301462C
:1016A0001A46184600F0A2B808B5074B044613B115
:1016B000002100F0EBF8054B1868836A03B19847E6
:1016C000204600F031F900BF8D1800005C190000C1
:1016D00038B50A4C0A4D641BA4100AD004F18043AB
:1016E000013B05EB8305013C55F804399847002C74
:1016F000F9D1BDE8384000F01FB900BF78000020E4
:101700007400002070B50D4E0D4D761BB61006D03E
:101710000024013455F8043B9847A642F9D1094EFC
:10172000094D761B00F002F9B61006D000240134F2
:1017300055F8043B9847A642F9D170BD70000020CF
:10174000700000207400002070000020F0B48607B4
:1017500046D0541E002A3CD0CAB2034602E014F11F
:10176000FF3436D303F8012B9D07F8D1032C29D978
:10177000CDB245EA05250F2C45EA054533D9A4F13C
:101780001006360903F1200707EB061703F11002D4
:1017900042E9045542E902551032BA42F8D1721CAE
:1017A00014F00C0F03EB021204F00F0613D0331FDA
:1017B00023F003030433134442F8045B9342FBD148
:1017C00006F003042CB1C9B21C4403F8011B9C426F
:1017D000FBD1F0BC704734461346002CF3D1F8E738
:1017E00014460346C2E71A462646E0E72DE9F843C9
:1017F000224C25680DB36C681F2C3BDC9846914643
:101800000F46064688B1D5F8880028B3D0F80031D5
:1018100040F824900122A24000EB84011343022EE1
:10182000C0F80031C1F8808010D0A31C01346C6076
:1018300045F823700020BDE8F883114E114D256056
:10184000002ED8D03468C5F88840D4E7D0F80431E9
:101850001A43C0F80421E8E70B4B5BB14FF48470E6
:10186000AFF3008030B100236C68C0E94033C5F8A5
:101870008800CDE74FF0FF30DDE700BF1002002009
:101880000000000084010020000000002DE9F04F5E
:10189000DFF8908083B0D8F8005001900F464FF0E9
:1018A000010A8DB16C68D5F88860013C0CD405F153
:1018B000080B67B12EB106F1800353F82430BB4208
:1018C00005D014F1FF34F4D203B0BDE8F08F6B689B
:1018D0005BF82420013BA34216BF00236C604BF849
:1018E0002430002AEDD0D5F80490B6B1D6F8001116
:1018F0000AFA04F30B4210D0D6F8040156F824106B
:1019000003420CD1019890476B68D8F800204B45F2
:1019100001D1AA42D5D01546C3E79047F4E708465F
:101920009047F1E710020020FEE700BFF8B500BFC6
:10193000F8BC08BC9E467047F8B500BFF8BC08BCB0
:101940009E467047000000000000000000000000FC
:101950000338FDD87047000016171800100000204B
:041960000000000083
:0819640024F9FF7F01000000DF
:10196C000090D003100000200000000000000000D8
:10197C00000000000000000000000000000000005B
:10198C00000000000000000000000000000000004B
:10199C00000000000000000000000000000000003B
:1019AC00000000000000000000000000000000002B
:1019BC00000000000000000000000000000000001B
:1019CC00000000000000000069120000411200003D
:04000003000012F9EE
:00000001FF
