:02000002F0000C
:107D000000000420F97F0F0021800F0023800F0066
:107D100025800F0027800F0029800F000000000041
:107D200000000000000000000000000005960F00A9
:107D30002D800F00000000002F800F0031800F0009
:107D400033800F0033800F0033800F0033800F002B
:107D500033800F0033800F0033800F0033800F001B
:107D600033800F0033800F0033800F0033800F000B
:107D700033800F0033800F0033800F0033800F00FB
:107D8000B19D0F0033800F0033800F0033800F0050
:107D900033800F0033800F0005900F0033800F00F9
:107DA00033800F0033800F0033800F0033800F00CB
:107DB00033800F0033800F0000000000000000003F
:107DC00033800F0033800F0033800F0033800F00AB
:107DD000419A0F0033800F0033800F0033800F0073
:107DE00033800F0033800F0025D50F000000000006
:107DF0000000000033800F000000000033800F00FF
:107E00000000000000000000000000000000000072
:107E10000000000000000000000000000000000062
:107E20000000000000000000000000000000000052
:107E30000000000000000000000000000000000042
:107E40000000000000000000000000000000000032
:107E50000000000000000000000000000000000022
:107E60000000000000000000000000000000000012
:107E70000000000000000000000000000000000002
:107E800000000000000000000000000000000000F2
:107E900000000000000000000000000000000000E2
:107EA00000000000000000000000000000000000D2
:107EB00000000000000000000000000000000000C2
:107EC00000000000000000000000000000000000B2
:107ED00000000000000000000000000000000000A2
:107EE0000000000000000000000000000000000092
:107EF0000000000000000000000000000000000082
:107F00000348044B834202D0034B03B11847704728
:107F10000C5A00200C5A00200000000005480649B9
:107F20000B1AD90F01EBA301491002D0034B03B187
:107F3000184770470C5A00200C5A0020000000001F
:107F400010B5064C237843B9FFF7DAFF044B13B1A1
:107F50000448AFF300800123237010BD205A002095
:107F60000000000090DE0F0008B5044B1BB104496F
:107F70000448AFF30080BDE80840CFE700000000F0
:107F8000245A002090DE0F00A3F5803A704700BF0E
:107F9000154B002B08BF114B9D46FFF7F5FF002145
:107FA0008B460F461148124A121A05F0EFFB0C4B94
:107FB000002B00D098470B4B002B00D09847002097
:107FC000002104000D000B4805F0BEFA05F0F0FAA0
:107FD0002000290001F090FA05F0BCFA000008002A
:107FE000000000000000000000000420205A0020D3
:107FF000889000207DD50F000649074A074B9B1A41
:1080000003DD043BC858D050FBDC00F0ADFCFFF7AB
:10801000BFFF0000FCDE0F0068590020205A00203E
:10802000FEE7FEE7FEE7FEE7FEE7FEE7FEE7FEE728
:10803000FEE7FEE74B1C30B5DB00044612F0030000
:108040009BB20DD1074D2A601A44074B1A60074BAB
:108050001870074B1870074B1C80074B198030BDF8
:108060000720FCE7445A0020405A00203C5A0020D8
:108070004C5A0020485A00204A5A00202DE9F34764
:108080002B4F3B888B4206460D4690464BD300242F
:108090000DF107008DF8074000F086F8254B2648C3
:1080A0001A78264B008893F800C084455FFA8CF15B
:1080B00038BF4C1CD2B238BFE4B2A2422DD01C78DB
:1080C0001A78D1B2904286BF0131C9B2002119702D
:1080D0009DF8070000F08CF84FF6FF739C4224D007
:1080E000DFF86090D9F800204FEAC40A42F83480E3
:1080F00002EBC403A6B19DB1114B38881B682A4618
:1081000004FB0030314605F0A7FAD9F8003053449B
:1081100000209D8002B0BDE8F0874FF6FF74D7E7DE
:1081200000209880F6E70920F4E70420F2E700BF7A
:10813000485A00204C5A00204A5A00203C5A00203D
:10814000405A0020445A0020F8B5114C114D2646E3
:1081500022782B789A4200D1F8BD0F480F4A237835
:10816000126807880E4802EBC301006852F83320FA
:10817000898803FB070090470A4922780988D3B20F
:10818000914286BF0133DBB200233370E0E700BFCA
:108190004C5A00203C5A0020485A0020445A0020E3
:1081A000405A00204A5A002070B5EFF3108672B68C
:1081B0000C4A946801239CB993600B4B0B4DD3F888
:1081C000801029401160C3F88050D3F884105160AA
:1081D0004FF0FF32C3F88420047006B962B670BD58
:1081E0000370FAE7F88C002000E100E0FC06FFBD18
:1081F00010B5084B9A685AB150B9EFF3108172B6B6
:10820000054A1C6814605C685460986001B962B6E5
:1082100010BD00BFF88C002000E100E030B53AB19D
:108220001368DB430A4D0144814204D1D84330BD79
:108230004FF0FF33F6E710F8012B5340082213F0FC
:10824000010418BF2C46013A84EA5303F7D1EBE747
:108250002083B8ED10B561B1B2FBF3F403FB142435
:10826000A4B244B9C0E9001484608281C38120466D
:1082700010BD0E20FCE70920FAE782B050E8022F7B
:10828000C188B2EB324F4FF0000317BF92B241EA00
:10829000014142EA014104E04268B2EB324F08BFBB
:1082A000012340E80212002AE8D18DF807309DF83A
:1082B0000730002B0CBF1120002002B0704737B5EB
:1082C00050E8013F9DB2C48925448489A54228BF56
:1082D0002D1B0489A54202BFBFF32F8F002207E0A8
:1082E000C5EA030540E80154002CE9D14FF0010232
:1082F0008DF803200193019B9DF803200B6002F091
:10830000FF0322B10B880068184403B030BD184643
:10831000FBE70A884B889A4209D150E8012FC2EA4C
:10832000024240E80123002BF7D1012070470020D2
:10833000704737B550E8023F1FFAA3F5C488A5423D
:1083400002BFBFF32F8F00220DE0C489254484892A
:10835000A54228BF2D1BC3EA054540E80254002C66
:10836000E8D14FF001028DF803200193019B9DF8A5
:1083700003200B6002F0FF0322B14B880068184411
:1083800003B030BD1846FBE70A884B889A4209D1F2
:1083900050E8022FC2EA224240E80223002BF7D124
:1083A000012070470020704710B5034653E8000FC6
:1083B0000A4643E8002494F0000FF7D110BD10B531
:1083C000034653E8000F40EA010243E8002494F01A
:1083D000000FF6D110BD10B5034653E8002F02EA96
:1083E000010043E8000494F0000FF6D110BD012114
:1083F000FFF7E5BF0021FFF7EEBF10B590B1D0E960
:10840000012301689B1ADBB20A60013BDBB2FF2B40
:10841000026802D10020107110BD11684C1C14605C
:108420000B70F2E70E20F7E737B5044600250DF193
:1084300007008DF80750FFF7B7FE226861681368E0
:108440008B4210D9591E116013F8015C228AE3682F
:1084500002FB05352268A36811685B1A1179DBB24B
:10846000994238BF13719DF80700FFF7C1FE2846F7
:1084700003B030BD37B5054600230DF107000C46AB
:108480008DF80730FFF790FE2A681368591C1160B9
:10849000E968641A298AB4FBF1F41C709DF807009E
:1084A000FFF7A6FE03B030BD01600B681146184708
:1084B00010B40468E468A4465DF8044B604710B447
:1084C00004682469A4465DF8044B604770B550B950
:1084D0000E4D0F4C0026641B1423B4FBF3F4B4427E
:1084E00008D1002010E00368002BF1D0BDE87040F7
:1084F000DB6918472B6813B901361435EFE7DB69E0
:10850000284698470028F7D070BD00BF0C5A0020BD
:10851000205A0020014B43600020704774DA0F009E
:108520000846704700207047024B1868003818BF93
:1085300001207047505A002008B50248FFF75AFF43
:10854000002008BD505A002008B510461A4605F014
:1085500083F8002008BD00002DE9F043814687B074
:1085600014480E4615469846FFF741FF0446F0B9F9
:108570000746BD4215D10F48FFF73CFFD9F8083038
:108580005BB102228DF800200022CDE90126CDE961
:108590000325CDF8148068469847204607B0BDE80B
:1085A000F08306EB073000F007FE0137E1E7112406
:1085B000F3E700BF505A00202DE9F041804686B015
:1085C00011480F4616461D46FFF711FF0446C8B96D
:1085D000AA083146384600F01DFE0B48FFF70AFF97
:1085E000D8F8083053B101228DF800200C9A05927A
:1085F000CDE90147CDE9036568469847204606B0B6
:10860000BDE8F0811124F9E7505A002029DF7047B6
:1086100028DF704770B50668B36886B004460D461B
:1086200073B114220021684605F0B0F8A3680593E1
:108630002379019533B1012B0ED0B3686846984772
:1086400006B070BD01238DF8003023690293E36802
:10865000039363690493F0E702238DF80030E36825
:108660001B030293F5E7084670470020704700009F
:10867000024B187A003818BF01207047405C002078
:10868000034B187A0122B0FA80F05A7440097047FF
:10869000405C002008B510461A4604F0DDFF0020BB
:1086A00008BD000008B514220021044805F06EF84A
:1086B0000348FFF7E2FD002008BD00BF405C00203A
:1086C000305C002010B5094C094B43602046FFF791
:1086D0008EFE48B900F07CFC064920741C23064835
:1086E0004FF4EE72FFF7B6FD002010BD405C002095
:1086F000A0DA0F00545A0020305C002070B5234CE3
:10870000234E237A25463BB922492348FFF711FE21
:10871000306008B9606070BD022334682B72237921
:1087200073B1012B22D020460321FFF773FF0023F2
:108730002B726B60BDE8704016491748FFF724BEE6
:10874000D4E90523D21A142AD4E9031028BF14222D
:108750009208012A38BF012219441844FFF756FF36
:1087600050B11128DFD101232B72D4E7D4E90303E0
:108770001844FFF74DFFF3E72B7C002BCBD10146CC
:10878000BDE87040022000F009B800BF405C002046
:10879000585C0020545C0020305C002038B5831EFB
:1087A000012B43D8224C237A002B3FD0022B09D136
:1087B00003282ED01F4B00221B68E2601A793AB1C1
:1087C000012A20D0637C6BBBBDE83840FFF796BF21
:1087D000D3E905128D1A142D94BF521914329A61DF
:1087E0009142EFD102284FF0000308BF19462372CF
:1087F000104B18BF0D211868FFF70CFF0E490F48EA
:10880000FFF7C2FDDEE71A6901321A615B699A421D
:10881000E7E7E3680133082B01D8E360D2E70023E0
:10882000E360DFE7BDE8384000F0C2BB38BD00BF01
:10883000405C0020585C0020545C0020305C00202C
:1088400000F0FD03012B08D1044B00225A74421E94
:10885000504250411874FFF751BF7047405C0020F0
:1088600010B5064C201DFFF7C2FD28B9637C1BB96B
:10887000BDE81040FFF742BF10BD00BF405C0020C4
:108880002DE9F34180460D460F4801A916461F46C3
:10889000FFF715FD0446A8B11C22002104F076FF65
:1088A0002D0B0123237101A90748C4F80080A7609C
:1088B000E5606661FFF72DFDFFF7D2FF002002B0F3
:1088C000BDE8F0810420FAE7305C00202DE9F74391
:1088D00081468846104801A917461E46FFF7EFFC5F
:1088E0000446B0B11C22002104F050FF00250A9B71
:1088F000A36001A9C4E9037807482571C4F8009072
:108900006661FFF706FDFFF7ABFF284603B0BDE841
:10891000F0830420FAE700BF305C002001600B68A0
:1089200043604A68934204BF002343607047436832
:1089300043B1026891680B4443605268934204BF9C
:108940000023436070470000054B1B68082B01BFE4
:10895000044B1868B0FA80F0400918BF0020704737
:10896000300100103401001008B54FF080430022A0
:10897000C3F80C21C3F81021C3F838254FF08052FA
:1089800003F54043D2F80414C3F82015D2F80814B4
:10899000C3F82415D2F80C14C3F82815D2F8101413
:1089A000C3F82C15D2F81414C3F83015D2F81814E3
:1089B000C3F83415D2F81C14C3F84015D2F82014AB
:1089C000C3F84415D2F82414C3F84815D2F8281473
:1089D000C3F84C15D2F82C14C3F85015D2F8301443
:1089E000C3F85415D2F83414C3F86015D2F838140B
:1089F000C3F86415D2F83C14C3F86815D2F84014D3
:108A0000C3F86C15D2F84424C3F87025FFF79CFF17
:108A100010B1384B384A1A60FFF796FF18B1374B40
:108A2000FB22C3F81825FFF78FFF48B13449354BB7
:108A30000A681B6822F00F0203F00F0313430B6058
:108A4000FFF782FF18B1304B4FF400721A604FF0FD
:108A50008043D3F80024D20744BF6FF00102C3F86B
:108A600000242A4AD2F8883043F47003C2F88830D0
:108A7000BFF34F8FBFF36F8F4FF01023D3F8002257
:108A8000002A03DBD3F80432002B2FDA204B01221B
:108A9000C3F80425D3F80024002AFBD04FF010229D
:108AA0001221C2F80012D3F80024002AFBD04FF0A4
:108AB00010231222C3F80422154B1A46D3F80014CF
:108AC0000029FBD00021C3F80415D2F80034002B94
:108AD000FBD0BFF34F8F0D490E4BCA6802F4E06222
:108AE0001343CB60BFF34F8F00BFFDE70A4B0B4A28
:108AF0001A6008BD8C5600404881030000F0004019
:108B0000E40E0040580200104096024000ED00E0E4
:108B100000E001400400FA05685900200090D003ED
:108B200038B52022044608300D4604F095FD202279
:108B3000A91804F1280004F08FFD002038BD0000C2
:108B40002DE9F743DFF86C809946184B0360044623
:108B50000E46404601211746FFF726FC0546BFF3A7
:108B60005F8FF8B900F0E6F80A9ACDF800903B461E
:108B700006F10801204603F083FB044600F0E8F804
:108B8000BFF35F8FC8F8005044B1094948F216524C
:108B900048F242538C4214BF14461C46204603B090
:108BA000BDE8F08348F20454F8E700BFDD55AABBE6
:108BB0008408F000048D00200E4B984214D00AD88F
:108BC000B8B10D4948F2165248F20153884214BF19
:108BD000104618467047094B984208D0084948F299
:108BE000165248F20353F1E748F20350704748F237
:108BF000025070470102F0000002F0000202F00093
:108C00000F02F00008B5083003F0A4FBBDE80840EF
:108C1000FFF7D2BF13681F2B2DE9F34106460F461D
:108C2000144620D9DFF84C8001214046FFF7BCFBF9
:108C30000546BFF35F8FC8B900F07CF8394606F1EE
:108C4000080003F0F9FB019000F082F8BFF35F8F9A
:108C50000198C8F80050FFF7AFFF08B92023236040
:108C600002B0BDE8F08148F21450F9E748F2045030
:108C7000F6E700BF048D00202DE9F04105460E46C1
:108C8000194801211446FFF78FFBBFF35F8F38BBF4
:108C900000F050F8DFF854800835B4F5805F2746BF
:108CA00028BF4FF4805731463A46404604F0D4FC82
:108CB0003A464146284603F067FBE41B3E4468B948
:108CC000002CEAD100F044F8BFF35F8F064B00227E
:108CD0001A602046BDE8F041FFF76EBF0446F1E799
:108CE00048F20450BDE8F081048D00205C5C002057
:108CF000024B0020C3F80005704700BF00A00250DF
:108D000038B50A4B00251D60BFF35F8F084C012367
:108D1000C4F8003503F0C0FBC4F8005520B10528A5
:108D200048F2035018BF032038BD00BF048D002057
:108D300000A00250044B0122C3F80025034B4FF45E
:108D400080625A60704700BF00A0025000E100E05E
:108D5000044B0022C3F80025034B4FF48062C3F894
:108D60008420704700A0025000E100E0074B1B5C2C
:108D70001F2B86BF064903F01F034FF0A0410122BD
:108D800002FA03F3C1F80C35704700BFF0DA0F00A8
:108D900000030050074B1B5C1F2B86BF064903F0E6
:108DA0001F034FF0A041012202FA03F3C1F8083576
:108DB000704700BFF0DA0F000003005008B5002034
:108DC000FFF7E8FF0120FFF7E5FF0220FFF7E2FFD2
:108DD000BDE808400320FFF7DDBFC20710B5044619
:108DE0000CD54FF0A0430322C3F83427C3F838272B
:108DF000C3F83C27C3F84027FFF7E0FFA3070AD5D5
:108E00004FF0A0430C22C3F82C27C3F83027C3F837
:108E10006027C3F8642710BD10DF704711DF70476B
:108E200013B5044609496846FFF778FD019808B96B
:108E300002B010BDD0E900212046904718B1684625
:108E4000FFF775FDF2E71120F2E700BFF8DA0F0037
:108E500013B5044607496846FFF760FD019B0BB94F
:108E600002B010BD2046D3E9002190476846FFF7C5
:108E70005EFDF3E710DB0F00064B9A6822B11A681B
:108E800022F480021A607047034B4FF48002C3F84B
:108E900080207047F88C002000E100E00B4991F839
:108EA00016335A09EC231341DB0706D5084B9A68A1
:108EB0003AB94FF480030B60704742F2020000F0B1
:108EC00018BB1A6842F480021A60704700E100E0A3
:108ED000F88C0020F7B5194F3C7864BB184E01257B
:108EE00020463570FFF79CFF112821D02046FFF760
:108EF000AFFF144B8DF80340186801900DF103008B
:108F0000FFF752F9104901A8FFF786FF0446B0FAAF
:108F100080F0400938709DF80300FFF769F93CB90B
:108F20000A4B34701C70FFF7B9FF2846FFF790FF1B
:108F3000204603B0F0BD0824FAE700BF5D6C0020B6
:108F40005C6C0020F4DA0F00ED940F005E6C0020E2
:108F5000F7B5154F3B781BB3144E01203070FFF767
:108F60005FFF11284FF000051CD00220FFF770FFB3
:108F70000DF107008DF80750FFF716F9FFF74EFFC8
:108F800004469DF807003D70FFF732F92CB93470A4
:108F9000FFF772FF0320FFF75BFF204603B0F0BD31
:108FA0000824FAE72C46F8E75D6C00205C6C002092
:108FB000054B1B7833B1054B1B780BB1FFF7C8BFCE
:108FC000FFF788BF082070475C6C00205D6C0020B4
:108FD000014B1878704700BF5D6C002007B5084949
:108FE0006846FFF79BFC019B13B903B05DF804FBD7
:108FF000D3E9002090476846FFF799FCF3E700BFEC
:1090000004DB0F00FFF7EABF60DF704769DF7047DE
:1090100061DF704730B5114DADF5017D4FF4FA7445
:109020000DF1020103A8ADF80240FFF7F1FF70B99E
:10903000294601A8FFF772FC029B002BF0D003A881
:10904000D3E90021904701A8FFF771FCF4E7052858
:1090500001D000F04EFA0DF5017D30BD1CDB0F0094
:10906000024B1B780BB1FFF7D5BF70475F6C002038
:1090700018B1034B0360002070470E20704700BFFB
:1090800068590020F0B5074685B00D4600295DD02F
:109090002F4B0B600C22002101A804F077FB012666
:1090A00006232A68ADF8083001A920208DF8047045
:1090B0008DF80660FFF7AAFF0C22002101A804F03A
:1090C00065FB00242A688DF8056001A94020ADF8F1
:1090D0000640FFF79BFF0C22214601A804F056FB37
:1090E000F7232A68ADF8063001A923208DF8047013
:1090F000FFF78CFF0C22214601A804F047FB2A68E9
:109100008DF8046001A93046FFF780FF0C2221464C
:1091100001A804F03BFB4FF4B0632A68019301A956
:10912000A120FFF773FF0C22214601A804F02EFBBB
:109130009DF804302A6864F3000301A9A0208DF88B
:109140000430FFF763FF204605B0F0BD0E20FBE7BB
:109150006859002008B5FFF757FF10B9014B0122ED
:109160001A7008BD5F6C00204BDF70471FB50D4CB7
:1091700001A8FFF7F9FF70B9214602A8FFF7CEFB5F
:10918000039B002BF4D00198D3E90021904702A85B
:10919000FFF7CDFBF4E7052801D000F0AAF904B0F1
:1091A00010BD00BF28DB0F00024AD2F80034002BAC
:1091B000FBD0704700E001400A4908B50223C1F81E
:1091C0000435BFF36F8FBFF34F8FC1F80805FFF76A
:1091D000EBFF0023C1F80435BFF36F8FBFF34F8F50
:1091E00008BD00BF00E0014010B5094C0123C4F8E0
:1091F0000435BFF36F8FBFF34F8F0160FFF7D4FFCC
:109200000023C4F80435BFF36F8FBFF34F8F10BD39
:1092100000E001400E4B10B50124C3F80445BFF334
:109220006F8FBFF34F8F01EB8204401AA14208D128
:10923000074B0022C3F80425BFF36F8FBFF34F8F96
:1092400010BD431851F8042B1A60FFF7ADFFEDE78E
:1092500000E0014028B139B10023C1E900301846CF
:10926000704748F21050704748F21350704738B1B9
:10927000006848F24053884214BF184600207047E7
:1092800048F21050704730B148F21153914214BF68
:1092900018460020704748F21050704770B50646D7
:1092A0000C461D46FFF7D6FF50B9B3794AB1AB4221
:1092B0000AD111462046FFF733FC08B9044B23605E
:1092C00070BD48F21050FBE748F21150F8E700BFBC
:1092D0007052464D2DE9F0470C460546114920468F
:1092E000DDE9088916461F46FFF7C1FFA8B9636884
:1092F0005A79494652004046FFF7C5FF68B956B152
:109300006DB1CDF820803B46324621462846BDE867
:10931000F047FFF715BC48F21050BDE8F08748F25F
:109320001550FAE77052464D10B5044638B149B1B0
:1093300041600B68984708B9044B236010BD48F2A0
:109340000150FBE748F21050F8E700BF6E52464864
:10935000F0B4134648B10768094EB7420AD161B16B
:109360002AB14368F0BC5B68184748F201531846BD
:10937000F0BC704748F20253F9E748F21053F6E7A1
:109380006E524648F0B460B107680C4EB7420CD13B
:1093900071B143681568DC68A5420CD3F0BC9B68CA
:1093A000184748F20150F0BC704748F20250FAE703
:1093B00048F21350F7E748F21450F4E76E5246486B
:1093C000F7B50446DDE9086715460193FFF7ACFFE2
:1093D00068B9019A29462046FFF7BAFF38B93A46DC
:1093E0003146204603B0BDE8F040FFF7CBBF03B0E5
:1093F000F0BD0000F8B50A4F0A4C0B4DE41B0121EB
:10940000E40829700026A64203D102232B70002015
:10941000F8BD57F8363098470028F9D10136F2E701
:1094200094DE0F009CDE0F00606C002001390144C7
:10943000814200D2704703780A7800F8012B01F8C6
:109440000139F5E7013A02440139824200D27047FE
:1094500011F8013F02F80139F7E770B516460D46DD
:10946000FFF7F0FF3246A9193044BDE87040FFF71E
:10947000E9BF38B50D460446FFF7D8FF2946601905
:10948000BDE83840FFF7D2BFBFF34F8F0549064B09
:10949000CA6802F4E0621343CB60BFF34F8F00BF92
:1094A000FDE700BF00ED00E00400FA0508B507285D
:1094B0001BD8DFE800F004121A1A1A041A0401205B
:1094C000FFF78BFC0020FFF751FC0120FFF74EFC5B
:1094D000BDE808400220FFF75DBC0120FFF75AFC01
:1094E000BDE808400220FFF741BC08BD08B5FFF702
:1094F000CBFF08B5FFF7C8FF08B500F025FC002238
:1095000010464FF4805100F0B3F9024608B1FFF75E
:10951000BBFF0548C0F57E2100F0AAF90028F6D16E
:10952000024800F0CDF8F2E7007D0F00AD940F0087
:1095300038B1054B0360054B4360012303720020E3
:1095400070470E20704700BF77950F0051950F00B0
:1095500069B10B78022B0CD1022804D0032814BF68
:1095600008201120704703230B70002070470E2045
:1095700070470820704710B50C4681B10B78012B5D
:1095800006D00ED9033B012B94BF0820112010BD3B
:1095900002F044F80028FAD102232370F7E70E20E6
:1095A000F5E70820F3E7000070B5144B144A0C21CE
:1095B000D21AB2FBF1F2816911F8025C044635B9A6
:1095C00000690021914205D1012323600EE04FF094
:1095D000FF30F6E71E68AE420CD1461C07D19D68ED
:1095E000D4E90001D4E90223A847206070BD5E6879
:1095F0008642F4D001310C33E4E700BFA4DE0F0053
:10960000B0DE0F001EF0040F0CBFEFF30880EFF385
:109610000980FFF7C9BF00BF007800F00100704764
:1096200041DF7047014B01221A707047847000209F
:10963000BFF34F8F0549064BCA6802F4E06213433B
:10964000CB60BFF34F8F00BFFDE700BF00ED00E030
:109650000400FA05024B034800221A7001F0B8BF5B
:109660008470002031960F00042810B5044609D8F4
:10967000022811D816D00D4B1B68B3B12046BDE8A7
:1096800010401847831F012BF5D8094B09480022C9
:109690001A7001F09DFFEEE707494FF4701000F0DB
:1096A0002DFAE8E701F0DAFEE5E710BD887000204A
:1096B0008470002031960F0055960F0000207047EF
:1096C00038B5554B554A18604FF0A0430020C3F8F9
:1096D000642701F093FF0446002840F0988000F0D2
:1096E000DDFA012800F08E80022800F09280002828
:1096F00040F08D804FF08043D3F8004414F4803460
:1097000035D04FF48032C3F800240446444D2B6A10
:10971000012B3FD04FF4701400F056FB414A20213A
:109720001820FEF787FC08B1FFF7E3FE3E4B1A68EE
:1097300002F0F802B02A06D11A68D20742BF1A68AE
:1097400002F04E021A60FFF7B9FF00285FD12046F1
:10975000364900F0D3F9364801F032F8002856D1E6
:1097600000F058FBFEF7F0FCFFF75AFFF8E7D3F8DC
:10977000202502F0F802A82A0AD1D3F82025D00724
:1097800006D5D3F8202502F05602C3F82025BDE700
:109790000124BBE743F204031A68264B9A4209D01E
:1097A00001F0C8FFAA69014694B1234802F0BAFA51
:1097B00090B9AFE76A6B1CB995F86032012BEFD016
:1097C0001E484FF4805102F0ADFA0028E8D1A1E71D
:1097D00095F8A132012BE8D14FF0A043D3F8103512
:1097E000990197D5104B1B6813F0B10F92D101F07E
:1097F0004DFF60B9124B1870124801F0E9FE00F0FD
:1098000025F804E00E4B10481C7001F0E1FE032027
:1098100038BD4FF4A0247FE7887000200C000300BF
:10982000088D0020646C00201C05004055960F0038
:1098300069960F00DBE5B151A98F0020688F0020E9
:109840008470002025960F0031960F0008B5074B55
:109850004FF0FF32C3F88020C3F8802101F01EFCD6
:10986000BDE808404FF4805000F03EB800E100E051
:10987000F0B50646C1F30B0078BBB6F57F2F2CD8A8
:10988000174CDFF860C02368002A14BF06270227A0
:109890000246072B05D902B123600420F0BD012246
:1098A000F7E71D0105F1804202F5F0326544C2F888
:1098B0000068C2F80418C5F80878D2F800E87645C0
:1098C00003F10103EBD1D2F804289142E7D1D5F896
:1098D00008289742E3D12360E0E70720DEE700BFD6
:1098E0008C70002000E0014010B5044617480022AB
:1098F000C0F57F21FFF7BCFF08B1FFF7FAFD01F0CB
:1099000019FF134B9B6903F6FF7323F47F6323F066
:109910000F03002219181046FFF7AAFF08B1FFF73E
:10992000E8FDEFF305830023D4E9001283F31488E4
:1099300083F3108883F3118883F3138881F30888F5
:109940004FF0FF339E46104710BD00BF007D0F0053
:10995000088D002037B56FF07F42154C057BD4F899
:1099600004358A4228BF0A46891A13444A1E942A9B
:1099700023F07F4305F5A8729BBF963B963141606B
:10998000416044F822300B4B4FF4F86043F0010380
:109990009847094BAA00134400221A601B680193E0
:1099A000019B4FF48033AB40C4F8043303B030BDA7
:1099B0000040024080DB0F004041024018490A7815
:1099C00084B0002A29D14FF08043A020D3F8183466
:1099D000DB035EBF134B01221A60134A002313609E
:1099E00012680392039A114A136012680292029A53
:1099F0000F4A136012680192019A0E4A82F82403FA
:109A0000102050600C4A0D48C2F80835012303604D
:109A100002201360C2F804030B7004B0704700BF4B
:109A20009470002008000040004102404041024084
:109A30004441024000E100E0004002400840024092
:109A400013B5284B1A6842B127490A6801320A60E7
:109A500000221A601B680093009B244B1A68A2B175
:109A600000221A6022481B68027B0193019B4FF47D
:109A7000803393401F4AC2F808334168044601BB53
:109A80008168D9B9236803B198471B4B1A6832B370
:109A900000221A6016481B68027F0193019B4FF455
:109AA00080339340134AC2F808334169044659B1E0
:109AB000103002B0BDE81040FFF74CBFFFF74AFF7F
:109AC000E0E7FFF747FFE0E7816911B11030FFF7EA
:109AD00041FF23691BB102B0BDE81040184702B036
:109AE00010BD00BF04410240907000204041024080
:109AF0006C590020004002404441024070B50B4BBD
:109B00001D682A7B4FF480339340094A0E46C2F801
:109B10000833044640B1FFF751FF2E602146284626
:109B2000BDE87040FFF716BF70BD00BF8C59002024
:109B30000040024070B5074B1D680E46A860044601
:109B4000FFF73CFF2E6021462846BDE87040FFF736
:109B500001BF00BF90590020014B01221A707047CD
:109B60009570002038B50F4BDA6A5D6A9C6CAC2AA0
:109B700010D15B6B1C44ED1A0B482A46214603F0BA
:109B80003BFD68B100F046F929462046BDE8384063
:109B900001F066BA002CEFD101F0E2FD0446EBE7DC
:109BA00038BD00BF088D0020007D0F002DE9F74F64
:109BB00006468846A8EB06052D0B02F6FF771446ED
:109BC00000F002F9082D28BF08252B03DFF868B044
:109BD00001933F0B0CB9234629E0BD422CBFBA4686
:109BE000AA464FF000025146304634BFDDF80490DB
:109BF000A14601F01DFA0346C8B909F1030222F09B
:109C000003024146304601F005FA034678B9DBF815
:109C100030304B44CBF8303001F0E0FCA7EB0A07C2
:109C2000A4EB09044E44C84403460028D2D0184689
:109C300003B0BDE8F08F00BF088D002010B501F023
:109C40009FFD154A42F20403916CCC5803F1A343E3
:109C500003F5471303F2D7539C4218D1D2E90C32D3
:109C6000934216D0884204D1BDE81040002001F094
:109C7000B5BCD21A02F6FF7222F47F6222F00F0204
:109C800019441844FFF792FF0028EDD010BD0320BF
:109C9000FCE70020FAE700BF088D002070B5264CD5
:109CA000E36AAA2B37D005D8012B0BD0A52B2ED0D9
:109CB000002070BDAC2BFBD1FFF7C0FF48BBFFF706
:109CC00051FF26E0A66C656A01F034FD864229D179
:109CD00001F030FD00222946FEF7A0FAA36A98425F
:109CE00002BF0123C4E90703A5610025134801F061
:109CF00015FD134B134800221A7001F06FFC68B970
:109D000075B1236A012B14BF01200220D1E7FFF7B0
:109D100095FF0125EAE7FFF725FFE6E70320C8E7FF
:109D20000120C6E7236BEA1AF1181844FFF73EFF3B
:109D30000028DAD1CCE700BF088D00202C8D002050
:109D400095700020599B0F0008B540F6F870036825
:109D5000013302D10749FFF747FA40F6FC70036868
:109D6000013305D1BDE808404FF47E21FFF73CBA2E
:109D700008BD00BF007D0F000A4AD2F800347BB155
:109D800009480023D2F80815D940C90748BF03F590
:109D9000C07103F1010348BF42F82100072BF1D144
:109DA000704700BF000001403546526EFFF7E4BF28
:109DB000044B002282B01A601B680193019B02B021
:109DC000704700BF0001014038B50E4C2278BAB987
:109DD0000D4BD3F800248AB1D3F80455FFF7CCFF1C
:109DE00040F61650A842B8BF28460849A0F548607A
:109DF000FFF7A0FE064B4FF480321A600123237058
:109E000038BD00BF9670002000000140AD9D0F00DE
:109E100000E100E0034BD3F800340BB1FFF7ACBF17
:109E2000704700BF000001400023C0E90232C0E9D2
:109E300000118B881A440261B1F906301A4442615C
:109E40000888003818BF0120704710B54268118893
:109E50000346002939D002F110014160148A2CB95F
:109E6000C2680168FFF7E0FF204610BD90781189B5
:109E700000F03004302C1BD1947C04F03004302CE2
:109E80001DD190881969091A19610021907810F084
:109E9000300F02BF986801309860908A08441969B1
:109EA00001441961B2F91620114459610120DCE71F
:109EB00000F0F004202C02D150894143E6E700F085
:109EC000C000802808BF0421E0E70846CDE770B550
:109ED000466804460D4663681A88AA4204D19B78F6
:109EE00003F00F03082B07D12046FFF7AEFF63688E
:109EF000B342F0D1002070BD0120FCE743681A4452
:109F0000426011B101399A4201D10120704713F822
:109F1000010B01F8010FF6E72DE9F34183680446D0
:109F2000884623B90026304602B0BDE8F0810368B8
:109F300001220DF10701984706460028F2D0A368D8
:109F40009DF80750013BA3609DF90730002B1ADAFA
:109F500005F07F050727A368002BE3D023680122C3
:109F60000DF10701204698470028DBD0A3689DF833
:109F70000720013BA36002F07F03BB401D43130693
:109F800007F1070702D4C8F80050CCE7232FE2D12D
:109F9000C8E770B54268927802F00F01082986B0D0
:109FA00003461FD103691C6800260CB906B070BDBA
:109FB000236826739D68626829466846FFF734FF68
:109FC0006368049304F10C030593AB7803F0C003BA
:109FD000802B08BF231D684608BF0493FFF7D9FFF5
:109FE000A468E2E712F0C00120D102F0300010288E
:109FF0000ED15A6911705A6818699378D46803F0C1
:10A000000F03072B09D10146204600F017F8CDE7D2
:10A010009006F0D55B691980C8E71289214614B112
:10A0200003F01AFBC2E703F0B1FBBFE78029BDD103
:10A030000069002192060160B8D5EBE77FB50A46BA
:10A0400001466846FFF7F0FE30B16846FFF7A1FF12
:10A050006846FFF7FAFEF7E707B05DF804FB00007B
:10A0600030B5044685B01546A9B90268114B9A422D
:10A0700011D0102D06D82A4669462046FFF7F0FF7A
:10A0800005B030BD102269462046FFF7E9FF0028E1
:10A09000F6D0103DEDE7A368AB4201D20020EFE718
:10A0A00023682A46204698470028F7D0A268521B0A
:10A0B000A260E5E7FD9E0F00F7B50E4601A9074631
:10A0C0001546FFF729FFA8B1019A0123D3184FF0D5
:10A0D000000404D2B17801F0C001802901D12046EA
:10A0E00008E031899942FAD329463846FFF7B8FF8C
:10A0F000019BEC5403B0F0BD73B50D4601A90646B3
:10A100001446FFF709FF98B1019AB2F5803F11D2CA
:10A11000AB7803F0C003802B02F102010AD02B8937
:10A120008B4207D32146304621F8022BFFF798FFD8
:10A1300002B070BD0020FBE710B5034C8260002226
:10A14000C0E90041C26010BDFD9E0F002DE9F34142
:10A15000002604460F46B0463546A3682BB3236855
:10A1600001220DF1070120469847F0B1A3689DF840
:10A1700007C0013B0CF07F02C5F12001A360A5F1EF
:10A18000200302FA03F322FA01F10B43AA401CF068
:10A19000800F46EA020643EA080805F1070502D1E6
:10A1A000C7E9006802E0462DD7D1002002B0BDE823
:10A1B000F08173B50C4669461646FFF7C7FF68B1D4
:10A1C0002389082B0CD1DDE90045C6E90045DDE90E
:10A1D0000023AB4206BFA2420120002002B070BDA6
:10A1E000042B04D1009B33601C460025EFE7022BB3
:10A1F0004FF0000004D1009B33809CB20546E6E797
:10A20000012BEBD1009B337003F0FF04F6E737B569
:10A210000D4669461446FFF799FF30B12A89082A8E
:10A22000DDE9003103D1C4E9003103B030BD042AB7
:10A2300018464FEAE37108D123601A460B468B4259
:10A2400006BF824201200020EFE7022A04D11BB2A0
:10A2500023801AB2D317F2E7012A03D15BB223702D
:10A260005AB2F7E70020E0E7F7B51F4600233B703E
:10A270000D460B70136001A904461646FFF74CFE0D
:10A2800030B9A36813B901233B70002003B0F0BDBF
:10A29000019C002CF7D0E30804F0070433602C7015
:10A2A000F4E713B5044605291FD8DFE801F0030FD2
:10A2B000151E1E1C012201A92046FFF7D1FE18B170
:10A2C0009DF90430002BF5DB02B010BD08220021FF
:10A2D0002046FFF7C5FEF7E701A9FFF71DFE00289E
:10A2E000F2D0019AF3E70422F1E70020ECE773B51E
:10A2F0000D4601A90446FFF70FFE064618B90026D1
:10A30000304602B070BD94E80F0085E80F00019957
:10A310008A42F4D3A960A3685B1AA360F0E7000047
:10A320002DE9F0435768BB7813F0C00489B00646A6
:10A330008C46154603D0402C6AD000240CE003F074
:10A340000F025F4903F03003202B51F8228026D002
:10A3500006D8CBB1102B1CD0204609B0BDE8F08345
:10A36000302BF9D16B6939881980072A0AD16B68BB
:10A3700028691A89214603F009FA6B682969D868A7
:10A38000FFF75CFE2A6940E02A693946C047044667
:10A39000E2E76B6901221A702A696968F6E7BCF185
:10A3A000020FD5F8149024D1042A22D804A9FFF76B
:10A3B0009EFF04460028C0D0069B2BB16968B9F8FF
:10A3C00000304A899A4205D8059B7360069B002B92
:10A3D000C2D0B2E708892A6903FB002204A8C0475B
:10A3E00028B1B9F800300133A9F80030E4E7044699
:10A3F000EAE7B9F800307A899A429ED92A69398900
:10A40000581CA9F8000003FB012269683046BDE72B
:10A41000D2F81080474657F8043B13B9FFF741FFC5
:10A42000B5E7022914D104A9FFF761FF002884D001
:10A43000D8F8003069683A4604A8984704460028CE
:10A440003FF47BAF069B002BF2D1059B736083E743
:10A45000012925D005292BD000297FF46EAF0C46A9
:10A460000DF1040901340B2C3FF467AF012249467A
:10A470003046FFF7F5FD00283FF45FAF19F9013BC7
:10A48000002BEFDB0F4B049301ABCDE90534002328
:10A490000793D8F8003069683A4604A8984776E7E9
:10A4A000082201A9FFF7DCFD08240028EAD144E7CF
:10A4B00004220DEB0201FFF7D3FD0424F5E700BFF2
:10A4C00088DB0F00FD9E0F002DE9F04F91B0044690
:10A4D000002604A8CDE90266FFF7A6FCA3683BBBF3
:10A4E000DDE9053404A89D78FFF7AFFC0028F7D11B
:10A4F00015F0300F03D1059B1B8803B10134002CEC
:10A5000000F0A9806309002202A9934240F09C80D8
:10A5100010AA02EB830304F01F0453F8383CC4F183
:10A5200020044FF0FF30E040C31A584258410DE07C
:10A530000DF1030301AA0DF102012046FFF794FE7D
:10A5400038B99DF80330002BCAD1002011B0BDE806
:10A55000F08F019904A8FFF7BAFC002850D1019BA5
:10A56000B3427DD3059D059A937803F00F03082B22
:10A570007FD004A8FFF769FC059B9D42F3D14FF003
:10A58000FF36019FB7426BD3089B9DF802A0D4F819
:10A5900008801D684FF00109A368002D5DD0984523
:10A5A0009CD12B68D3F800B0BBF1000F08D0534604
:10A5B0003A4629462046D8470028C6D0AD68EBE782
:10A5C000D3F808B0BBF800309F42F7D16A6859460B
:10A5D0000AA8FFF729FC6B680E9305F10C030F9393
:10A5E0009BF8023003F0C003802B04BF2B1D0E9399
:10A5F0000AAA85F80C9051462046FFF791FEDBE74A
:10A60000059B9B7813F0300F0FD1069A3F2A0CD888
:10A61000510910AB03EB810102F01F0201239340AB
:10A6200051F8382C134341F8383CE5682DB19DF8BA
:10A630000220019904AB2046A8479DF8021004AA05
:10A640002046FFF76DFE10E051F8225001357FF4EF
:10A650007DAF013259E7012078E798457FF43EAF9E
:10A660009DF802102046FFF71CFE00287FF436AF4D
:10A670006BE7168885E737B50C4605461146204638
:10A680000192FFF7DBFC019A2146284603B0BDE8A2
:10A690003040FFF719BF70B586B0CE6801920C4606
:10A6A00002A90546FFF723FE68B1E06858B1A37818
:10A6B000019A03F03003202B314602A805D1FFF7A1
:10A6C000DAFF039B6B6006B070BDFFF7FDFEF8E795
:10A6D000D3B50C466946FFF739FD80B1DDE90013BB
:10A6E00000274A0801F0010642EAC37256EA070150
:10A6F0004FEA53031CBFD243DB43C4E9002302B03B
:10A70000D0BD37B50D4669461446FFF7E1FF68B185
:10A710002B89082B0CD1DDE90001C4E90001DDE93A
:10A7200000238B4206BF82420120002003B030BDCF
:10A73000042B03D100982060C117F0E7022B04D14D
:10A74000BDF90000208000B2F6E7012B04D19DF98D
:10A750000000207040B2EFE70020E7E713B50422C5
:10A760000C460DEB0201FFF77BFC08B1019B236057
:10A7700002B010BD1146FFF7F1BF13B508220C4619
:10A780006946FFF76DFC18B1DDE90023C4E9002339
:10A7900002B010BD1146FFF7F0BF0000831F012B70
:10A7A00010B5044602D8002000F0A0FF034B1B6840
:10A7B0001BB12046BDE81040184710BD987000201E
:10A7C00008B5074B18600020FFF7E8FF054800F0C8
:10A7D00075FF20B9BDE80840024800F0F3BD08BD90
:10A7E000987000209DA70F006CDF70476DDF7047E9
:10A7F00072DF704773DF704774DF704775DF704733
:10A8000076DF70477ADF70477CDF70477DDF704707
:10A810007FDF704786DF70478FDF704790DF7047BC
:10A82000A8DF7047AADF7047ADDF7047AEDF704723
:10A83000B0DF7047B1DF7047B5DF704762DF704748
:10A8400066DF704713DF70477FB50023CDF80B300C
:10A850008DF80F300A4BADF806109B89ADF8083023
:10A8600001238DF80A300DF10603CDE90430054BC4
:10A8700002A91888FFF7DAFF07B05DF804FB00BFF4
:10A88000068100209659002001460148FDF7F2BDDF
:10A89000B0DE0F0070B518228CB000210DEB020065
:10A8A00002F074FF2823089316231E4CADF80630DF
:10A8B0000023CDE9033305930223092606222370E2
:10A8C000237159230125A27063710322FE230DF128
:10A8D0000601A0198DF818508DF82D500294ADF88E
:10A8E0000C606570E270A371FFF790FFB8B9BDF816
:10A8F000063026725A19E271BDF80C200A4C134436
:10A9000002A906AA2046ADF80C30FFF771FF30B956
:10A910002078FFF771FF20782946FFF76BFF0CB016
:10A9200070BD00BF1A810020945900202DE9F0412C
:10A930000388232B8AB0044636D80F2B05D8012B69
:10A9400000F0F2800AB0BDE8F081103B132BF9D87B
:10A9500001A252F823F000BFD9A90F00F5A90F00FA
:10A9600045A90F00C5AA0F0025AC0F0045A90F008F
:10A9700045A90F0045A90F0045A90F0045A90F00E3
:10A9800033AC0F0045A90F0045A90F0045A90F00E2
:10A9900045A90F00F7AA0F0045A90F0005AB0F004E
:10A9A00045A90F00B5AA0F00503B9AB2062AC9D894
:10A9B000062BC7D801A252F823F000BF1DAA0F0032
:10A9C00035AB0F0033AC0F0045A90F0045A90F00B0
:10A9D00075AA0F0015AB0F00994B82881A80994A0F
:10A9E00012681C460AB10120904797492088FFF75A
:10A9F00005FFA7E7924B4FF6FF721A80934B1B6837
:10AA00005A0704D4FFF746FF08B1FEF772FD8D4BDD
:10AA10001B68002B96D00220984793E78C4EE28863
:10AA2000B3889A428ED18B48FDF7FEFC054600287C
:10AA300088D0228A04F1120102F00EFE18220021B1
:10AA400004A802F0A3FE08238DF81030824B069371
:10AA5000824B0596CDE9073504A8238AADF824304A
:10AA600000F0A6FC00283FF46DAF7A482946FDF7B8
:10AA700001FD67E7E188F6291AD8CB1E9B070DD0A8
:10AA8000CB1F9BB2013B5A4202F0030203F00303C7
:10AA900001F1FF3158BF5342C91A89B2684B188877
:10AAA000FFF7CAFE00283FF44DAFFEF722FD49E74D
:10AAB000F721F3E7002204A98088CDE90422FFF7FB
:10AAC000ADFEEFE700235E4CADF812300223ADF887
:10AAD0001030208802AB04AA42F605210593FFF747
:10AAE000A3FE08B1FEF705FD002320881A46852144
:10AAF000FFF78EFED6E7524B00F108011888FFF7EA
:10AB00007DFECFE7002304A98088ADF81030FFF761
:10AB100083FEC7E7A379002B7FF414AF484B1321C2
:10AB20001888FFF76DFEBDE7454B00211888FFF739
:10AB300087FEB7E7A379002B3FF404AF022B7FF425
:10AB400001AF434920898A8990420E467FF4FAAECC
:10AB5000A27B012A7FF4F6AE00220120CDE9042277
:10AB60008DF81600208A364DADF81800608AADF8D1
:10AB70001A0004F114000790ADF80A20098A288809
:10AB80008DF8103001AF02AAADF808300397FFF737
:10AB90004BFEA84660B93846FEF73EFD40B940F28C
:10ABA000FD132888ADF8143004A9FFF741FEC9E66B
:10ABB000002304A9B8F80000ADF81430FFF738FE00
:10ABC000014600287FF4BEAE182204A802F0DEFD84
:10ABD000237D214A8DF81030022B0596069218D05D
:10ABE000062B10D0012B10D11D4B1A881D4B1A803B
:10ABF000637DD4F816200893012B099205D11A48D9
:10AC000000F074FD01E0637D089304A800F0D0FB20
:10AC100098E6A27D637D43EA0223114A1380114A1C
:10AC20001380F2E700231A4619468088FFF7F2FDE9
:10AC300038E70023A0881A461946FFF7FBFD31E7E5
:10AC4000965900204081002086DD0F003C810020C5
:10AC500006810020B0DE0F00D9AC0F0089A80F00DC
:10AC600044810020468100209CDE0F0038B5154944
:10AC70000B68024613F0010022D0134882421ED016
:10AC8000124A10884FF6FF72904213D043F004032B
:10AC90000B601321FFF7B4FD90B90D4DC82445F0AA
:10ACA00001054FF47A40A847013CFAD1BDE838408D
:10ACB000FEF74EB9074B1878FFF79EFDF6E7002028
:10ACC00038BD00BF3C8100209CDE0F00965900205B
:10ACD00080DD0F009459002010B5044686B0002195
:10ACE0000D2202A8019102F051FD2378082B0BD10F
:10ACF000364A374913880988013B9BB21380D9B182
:10AD0000D3B9032311802370627823788DF805303E
:10AD10006021012A8DF804108DF806200ED00B2A30
:10AD200012D100F093F98DF80700002000F088F9A7
:10AD3000042101A8FFF788FD06B010BD062B05D041
:10AD4000082B29D0032B27D00321F2E7E1688DF8E7
:10AD50000710D4E90123080A8DF80800080C090E31
:10AD60008DF80A10110A8DF80B208DF80C10110CBB
:10AD7000120E8DF80E201A0A8DF80F308DF8102063
:10AD80001A0C1B0E8DF80D108DF809008DF811208E
:10AD90008DF812300F21CCE7D4E90123110A8DF888
:10ADA00007208DF80810110C120E8DF80A201A0ACF
:10ADB0008DF80B308DF80C201A0C1B0E8DF8091035
:10ADC0008DF80D208DF80E300B21B2E74681002062
:10ADD000448100202DE9F043444B95B005464FF6E1
:10ADE000FF721A8001204FF659632A4602A98DF896
:10ADF0000A00ADF80830FFF713FD0446002871D1B2
:10AE00003B4B04AA03F1100716461868596814460C
:10AE100003C40833BB422246F7D1A91C3046FFF7D2
:10AE20000DFD044600285DD101461C220DA802F04C
:10AE3000ADFC9DF83430ADF8044043F004038DF8C8
:10AE400034300223ADF80C30AB788DF80E3004F0BE
:10AE5000F80343F003038DF80630F423CDE90A44E8
:10AE6000ADF82C302B4601AE33F8040B0C944FF0A8
:10AE7000110903AF08AA0DA9CDE908768DF8059050
:10AE8000FFF7D0FCA046044660BB01461C220DA87B
:10AE900002F07CFC9DF83430ADF8044023F0180338
:10AEA00043F018038DF834300123ADF80C30AB7843
:10AEB0008DF80E301723CDE90A44ADF82C302B461F
:10AEC00008F0E80833F80C0B0C9448F0130808AAB3
:10AED0000DA9CDE908768DF805908DF80680FFF76D
:10AEE000A1FC0446204615B0BDE8F0839659002029
:10AEF00068DD0F0030B5334C236813F0010585B0D1
:10AF00005DD1314B18603148FDF777FA029500F0BA
:10AF1000B8F800284CD12E48FFF794FC002847D100
:10AF2000FDF7D8FF002843D102A8FEF7A1F80028BA
:10AF30003ED102A90120FEF7A5F8002838D102A8C9
:10AF4000FEF708F9002833D100F090FB30B121481A
:10AF500000F080FB236843F002032360112302A862
:10AF60008DF80430FFF742FC10BB9DF8093002A8B1
:10AF700001338DF80930FFF737FCC8B923689B0708
:10AF800018D514498869043182B201A8FFF73CFC46
:10AF900070B91148FFF736FC50B91048FFF71AFF97
:10AFA00030B9FFF777FC18B9236843F00103236039
:10AFB00005B030BD0A4802F043FC0949E4E700202F
:10AFC000F6E700BF3C81002040810020B0DE0F008A
:10AFD000007D0F009C70002086DD0F0006810020A0
:10AFE00060DD0F0043690BB1C0681847704700006F
:10AFF00010B40549054C0022904218BF2146044870
:10B000005DF8044BFDF750BA80DA0F00ACDA0F00A0
:10B010000C5A002007B5009313460A460146034820
:10B02000FDF746FA03B05DF804FB00BF0C5A0020A0
:10B0300013460A4601460148FDF741BA0C5A002062
:10B04000014B18700B20704748810020024B0022F2
:10B0500018781A70704700BF4881002018DF7047C9
:10B0600030B585B0054610220C466846002102F036
:10B070008DFBA408684601950294FFF7EFFF05B029
:10B0800030BD1FB50023CDE9013303936846022389
:10B090000093FFF7E3FF05B05DF804FB4FF00053AA
:10B0A0004FF480521A60002070470000014B0620C8
:10B0B0001B681847548100200A2803D90B38C0B2F6
:10B0C000FFF7BEBF7047000010B5044686B00020F1
:10B0D000FDF7FCF9014630B1164A18212046FCF76D
:10B0E000CDFF06B010BD1822684602F04FFB0423C6
:10B0F000114A8DF80030114B116D1B68994211D126
:10B100000F4B186800F06EFF8DF80100FFF7D4FFB9
:10B11000D4E901138DF8010068469847094800F00A
:10B120005DFADEE701238DF801306846D4E90113AA
:10B130009847D6E7C9B00F00088D00204C81002049
:10B1400050810020ADB00F00F0B5044687B0182242
:10B150000021684602F01AFB22788DF800200123B6
:10B160008DF80130531E0B2B00F21681DFE813F02F
:10B170001D0010001D001D0014011D0014011D0004
:10B180001401140114010C00844B07201B6898471C
:10B19000D4E90113684698479DF80130012B00F06F
:10B1A000F0807E4B05201B68EAE0062A7C4901D02E
:10B1B000012A01D122690A700A78012A04D0022AE0
:10B1C00053D000230B7096E0072BE1D801A252F870
:10B1D00023F000BFF5B10F0091B10F005FB20F0077
:10B1E00033B20F0091B10F0059B20F0091B10F00AF
:10B1F0000DB20F00694B03201B689847606900F08F
:10B20000DFFCFFF759FF8DF80100C1E7A18A206933
:10B2100000F0EEFCFFF750FF624B8DF80100DA6B97
:10B220001B6C0293E3680192002BB1D02069984710
:10B23000AEE75D495D4800F029FDFFF73DFF0128BD
:10B240008DF80100A4D1002000F0C8F900289FD09B
:10B250000A238DF801309BE74FF400730393514BA1
:10B26000DA6B1B6C0192029392E7072B90D801A234
:10B2700052F823F095B20F0091B10F0053B30F00B5
:10B280005DB30F0091B10F0087B30F0091B10F00B4
:10B29000FBB20F0000F0CCFC08B90823D9E76269C3
:10B2A0000AB90323D5E7C2F30B0333B13D4B3E4943
:10B2B0005B6D096813448B42F3D1B2F5805F01D90D
:10B2C0000423C6E7374B3849586D096815188D4275
:10B2D000E3D85A64DA6C9A6418651863334B616971
:10B2E0001B6801F6FF710022090B1844FFF7A0FE4E
:10B2F00000283FF44DAF0523ABE700F099FC002890
:10B30000CBD0284DA18AD5E914329B1A6A6C0B4424
:10B310009342C6D8254B2F6B1B68206905F1480264
:10B320001F44FCF77BFFE368A28A21690646384682
:10B33000FFF770FE08B1E36878E7A28A2B6B0296EC
:10B3400013442B63A38A2A6DAE6413442B650193C7
:10B350001EE7144B9A6C02921B6DF8E7114BD3E970
:10B360001402596C821A8A4297D19A6C586500214E
:10B3700020465964DA64FFF7A7FE084B1B680420D7
:10B38000984707B0F0BD074B9A6C1B6D01934FF4C3
:10B39000805302920393FBE602235AE75481002074
:10B3A00098590020088D00204C81002050810020F9
:10B3B00083681BB1024A1821FCF760BE0720704762
:10B3C00049B10F0038B50546C0B10120FFF710FEA6
:10B3D000044648B900F0E6FB00F02AFC30B9084BFF
:10B3E00000201D60FFF72CFE204638BD05490648A9
:10B3F00000F04CFC0128F2D00324F5E70724F3E722
:10B40000548100204C810020508100202DE9F04122
:10B4100015464FF46072064688461F4602F0ECF867
:10B4200028B915B90020BDE8F081A847FAE7002245
:10B4300001213046FFF7FCFD70B94FF460724146C0
:10B44000384602F009F92B464FF46072394630460F
:10B45000FFF7E0FD0028E5D00320E4E72DE9F04107
:10B460003D4C236801335CD000225821201DFCF79D
:10B47000D5FED4F80080A8EB0002D2F1000848EB1A
:10B480000208364D364E2F683B6801335ED00022ED
:10B490005821381DFCF7C2FE3B68834244D17C68CA
:10B4A000012C0AD00022C32107F51870FCF7B6FE64
:10B4B000D7F85C42231A5C425C41B8F1000F35D0EA
:10B4C000254927484FF4607202F0C6F864B1296834
:10B4D00024485422043102F0BFF8296822484FF46E
:10B4E00032725C3102F0B8F87468012C2CD11F491B
:10B4F000402201F5E47002F0AFF81D491C2201F56D
:10B50000E47002F0A9F81B4986F8A1420023042246
:10B5100001F2862086F8603286F8E23202F09CF86A
:10B5200010E04FF00008ACE70024C6E724B129681A
:10B530000B484FF46072D5E709484FF46072002160
:10B5400002F024F902237360BDE8F081B8F1000F26
:10B55000F2D00024B4E700BF00F00F009C59002097
:10B56000088D00200C8D0020648D0020648E00204A
:10B57000A48E0020248D002070B50D4C05460022BD
:10B5800058212046FCF74AFE002244F8040CC3214F
:10B5900004F51770FCF742FE261FC4F858022A462D
:10B5A0003146044B0448BDE87040FFF72FBF00BF91
:10B5B0000C8D00205881002000F00F000246024848
:10B5C000024B0068FFF722BF9C590020D88400205E
:10B5D0000149FFF7F3BF00BF00F00F0038B5054683
:10B5E0000020FFF7C9FF044618B903492846FFF7B2
:10B5F000E5FF204638BD00BF088D002010B5FFF7DD
:10B60000F7FC044628B9FFF729FF2046FFF7E6FFBD
:10B6100000B1032010BD29DF7047000038B50C4D84
:10B620000446D5F8643378B101330FD100221821D4
:10B630000430FCF7F3FD2060214605F55970072220
:10B64000BDE83840FFF7E7BF0E2038BD0820FCE713
:10B6500000F00F0008B528B103491C2201F0FCFFDF
:10B66000002008BD0E20FCE764F30F0010B5064C67
:10B67000002218212046FCF7D1FD54F8043C1B1A87
:10B680005842584110BD00BF68F30F0010B50A4C76
:10B69000D4F82433D4F864231340013309D04FF491
:10B6A0007F20FDF789FDC92221464FF47F20FDF759
:10B6B000B1FD002010BD00BF088D0020F8B5094E77
:10B6C000094CA41B0746E4080025A54201D100202F
:10B6D000F8BD56F83530384698470028F8D101357E
:10B6E000F3E700BF9CDE0F00A4DE0F00F8B5094EA3
:10B6F000094CA41B0746E40800250436A54201D1E5
:10B700000020F8BD56F83530384698470028F8D163
:10B710000135F3E79CDE0F00A4DE0F0008B50C2214
:10B72000002102F033F8024B00221A6308BD00BF6B
:10B73000088D002043F204031A68084B9A4201BFA7
:10B7400043F20803186800F6FF7020F47F600CBF16
:10B7500020F00F004FF48050704700BFDBE5B1517F
:10B7600008B5FFF7E7FF054B9B69184400F6FF702B
:10B7700020F47F6020F00F0008BD00BF088D00207E
:10B780004FF48050704700002DE9F74F0193244B90
:10B79000DFF894B01B6ADFF89490009305461646D4
:10B7A0004FF0000843F2040AB8F1010F5FFA88F77E
:10B7B00014D0022F1FD0FFF7D3FF6EB1009B013BC7
:10B7C0005C425C41A9EB0000A84200D3F9B1B4B1DE
:10B7D000A8421CD204201FE03446F3E7FFF7AAFF7B
:10B7E000019B33B9DAF80040B4EB0B0418BF012415
:10B7F000E8E74446E6E701244FF48050E2E708F129
:10B800000108B8F1030FCFD1A842E3D300E017B18C
:10B810000448FFF783FF002003B0BDE8F08F00BFAE
:10B82000088D0020208D0020DBE5B151004D0F0078
:10B8300090F8552012F0FB0F07D190F8643023B137
:10B84000836ECBB10B600120704712F0010303D06F
:10B8500090F8563003B1836D9207F2D590F85C20D2
:10B86000002AEED0054A006EC2F57E22904201D831
:10B870000344E6E7042070470F207047007D0F0067
:10B8800010B5084C4FF40072FF21204601F07EFFF6
:10B8900020220021A4F1240001F078FF002344F8C5
:10B8A0002C3C10BD648D002030B55B68DA680D4B10
:10B8B0009A4208D10C490A6812B90C4A14681CB1A2
:10B8C0000B4B00221A7030BDD0E90134181913F95E
:10B8D000015B002DA0EB0304F9DB0B601460044B4B
:10B8E0000122EFE73CDC0F00808800207C880020EC
:10B8F0008488002010B543F2040319491C688C4267
:10B9000002462BD042F20403C358581A4342434123
:10B910008C42184621D142F20403D358A3421CD1D1
:10B920004FF4405302F500511B780978142B81BF66
:10B9300043F214030B481B68B3FBF0F398BF0023DA
:10B94000142989BF42F2140100205058054A88BFCB
:10B95000B0FBF2F0181A18BF012010BD0023D7E782
:10B96000DBE5B15140420F002DE9FF472F49304D33
:10B970008A6B304C304FDFF8D490DFF8D4A06E469D
:10B980005C313046FEF7D8FB96E80F0085E80F00E3
:10B9900000212A4B39704FF447722046C9F8001035
:10B9A000CAF80010EB6001F0F1FE25492246284656
:10B9B000FEF761FE20B90027384604B0BDE8F087E5
:10B9C0003F78002FF7D094F86C3194F800801BB3C7
:10B9D000B8F1000FEFD194F87231002BEBD0DAF808
:10B9E0000020D9F800103046FEF7A6FB96E80F00BD
:10B9F00085E80F004FF4B272414604F5BA7001F0C9
:10BA0000C5FE104904F5BA722846FEF734FE002838
:10BA1000D1D004F5BA7406E0B8F1000FCBD0A37909
:10BA2000002BC8D00834084B1C60C5E7088D0020E7
:10BA3000A48B00208888002084880020A9B80F00EB
:10BA4000F0DC0F003CDC0F00608C002080880020C0
:10BA50007C88002000B591B0FDF7CCFC6846084911
:10BA60002022FDF7FAFC6A46064907484023FDF705
:10BA700015FC064B01221A7011B05DF804FB00BFE3
:10BA800034DB0F00B48B0020CCDA0F005888002084
:10BA90002DE9F041CCB003AE80460D46144600219E
:10BAA0007C221F4604A82023336001F06FFEA422ED
:10BAB000002123A801F06AFE1A4B1B780BB9FFF78F
:10BAC000C9FF4DB3B8F1000F28D1DFF86880529B51
:10BAD00015490196CDF800803A4604A8FDF770FCA0
:10BAE000F0B9402C1CD1114F22462946384601F0AE
:10BAF000B3FD20213846FDF7BCFCCDE900740C49AC
:10BB00003368424623A8FDF7E5FB00280CBF01205F
:10BB100005204CB0BDE8F0811320FAE71620F8E7C5
:10BB20000A20F6E758880020D8DA0F001C8C002085
:10BB3000B48B0020FC8B0020F0B5ABB004460D4662
:10BB400016461F467C22202300210BA8029301F0F9
:10BB50001DFE114B1B780BB9FFF77CFF2FB121465F
:10BB6000202203A8FDF76EFC03AC02AB0B4F019340
:10BB70000B49009733462A460BA8FDF721FC48B92C
:10BB800020222146384601F037FDB0FA80F0400906
:10BB90002BB0F0BD0020FBE758880020598800201A
:10BBA000D8DA0F0008B5044B986B08B1FFF7DCFE3C
:10BBB000024B187008BD00BF088D00205C8C00206F
:10BBC00010B5044658B1B0F5007F0AD8064B0022E4
:10BBD0001A70FFF755FE054B01209C6310BD032032
:10BBE000FCE70420FAE700BF5C8C0020088D0020F1
:10BBF00070B50E4C0646E06BA36B42189A420D4698
:10BC000011D85C300A462044314601F025FDE36B33
:10BC100004F140022B4429463046E363FCF7FEFA68
:10BC20002064012070BD0320FCE700BF088D0020C8
:10BC3000014B1878704700BF5C8C002013B5104C86
:10BC400094F86C21B2B194F8D802B4F8DA2204F571
:10BC5000377104F5B8740B4B1B6800930A4B1B68D3
:10BC6000FFF716FF012809D1201D02B0BDE81040E2
:10BC700000F0BCB9114610460434ECE702B010BD28
:10BC8000888800207C880020808800202DE9F041F1
:10BC90001F4BD3E90E329A4206460D4633D1DFF8E8
:10BCA000788098F800704FB1FFF75AFD194B30605B
:10BCB00029461868BDE8F041FFF7BABDFFF754FE0A
:10BCC00018B3FFF7BBFF0128376004462F6017D178
:10BCD000104B29461868FFF7ABFD012804460FD129
:10BCE00003463A4628683946FFF74EFD38B9FFF754
:10BCF00037FD88F8004030602046BDE8F08104241C
:10BD0000FFF7BEFDF8E70824F6E70524F4E700BFD7
:10BD1000088D0020608C00205C8C00200123723094
:10BD2000FFF70ABF13B50446084623781146032BD4
:10BD300003D8DFE803F021050F18002002B010BD82
:10BD40000022D4F80140FCF769FA844214BF0020B5
:10BD50000120F3E70A4600230146601C02B0BDE85B
:10BD60001040FFF7E9BE009103464022611C00200D
:10BD7000FFF78EFE0128E9E70120DFE72DE9F0411A
:10BD8000A2B004460D46164600217C221F4603A899
:10BD9000202302939DF8A08001F0F8FC41220021AD
:10BDA000204601F0F3FCB5F894300BB195F896807D
:10BDB00084F80080B8F1030F1ED8DFE808F009020C
:10BDC000111F002239463046FCF728FAC4F801005A
:10BDD0003A4631462046FFF7A5FF22B0BDE8F08184
:10BDE00002AB0193631C009308493B46324603A80B
:10BDF000FDF7E6FA0028EBD00020EEE7B5F8982032
:10BE000005F19A01601C01F027FCE1E7D8DA0F0088
:10BE10002DE9F0476D4B1D68A4B004460F469046CF
:10BE20000A4601462846FFF779FF002800F0CC803B
:10BE300095F855601EBB4FF00109CDF800903B46C8
:10BE40002246294613A8FFF799FF00287FD0B8F1B2
:10BE5000000F6DD041225E4813A901F0FDFB5D4B40
:10BE6000C3F82C901E626A689A6000223946204608
:10BE7000FCF7D4F9574B0125C3E909709FE0412233
:10BE8000002102A801F082FC06F0010941220021F4
:10BE900013A806F0020601F079FCB9F1000F4BD0AF
:10BEA00042F20403E15803F1A34303F5471303F2FD
:10BEB000D75399424BD1D5F858A00AF5FF520AF64C
:10BEC000FF73C3F30B031F32D21A42F20803E35885
:10BED00093423CD343F204031B688B4213D14FF4CB
:10BEE00040531B78102B8ABF43F2100300221A68BC
:10BEF00004F500531B78102B8ABF42F21003002375
:10BF0000E3589A4223D12046FFF7F4FC00B1F6B182
:10BF10000123009322465346294602A8FFF72EFF2D
:10BF2000A8B1AB6DE218FB1A4EB9B8F1000F18D1E9
:10BF3000284B01255D6110E03B462246F4E70021D5
:10BF4000009113A82946FFF719FF0028EDD1052518
:10BF5000B8F1000F30D1FFF793FC284624B0BDE8BC
:10BF6000F087DFF87080B9F1000F21D02046FFF78D
:10BF7000C1FC18B108F11800FFF7D0FB16484122A8
:10BF800002A901F069FB002E14BFAC23A523C8F859
:10BF90002C30AB6DC8F83430002E3FF466AF0F483C
:10BFA000412213A901F058FB6B68C8F80C305CE71C
:10BFB000AA23C8F82C30EFE70948FFF7AFFBFFF7DB
:10BFC0005FFC044B9C64C8E71725C1E7608C002028
:10BFD000A98F0020088D0020688F0020EA8F0020A4
:10BFE0002C8D00200122FFF713BF0000F0B590F860
:10BFF00054200346002A51D090F8550003284DD80C
:10C0000093F86E20032A47D11A7A002A46D0DA68BC
:10C01000342A45D143F204011A8A0C6821498C4222
:10C020002AD152B15969E9B1D2B2002103F1140504
:10C0300043F20C06CCB2A24201D8122011E055F80E
:10C0400021703488A74201F10101F3D11A78FAB1C5
:10C0500001285B68144A15D89068834234BF1020C9
:10C060000120F0BD10B9012AE7D8EFE7421E18BF42
:10C070000122002AEAD1E0E712B15A69002ADCD194
:10C080001A78F6E7D06883428CBF01201020E8E7D9
:10C09000012818BF0F20E4E71420E2E70F20E0E7B3
:10C0A0001120DEE7DBE5B151088D002030B10268D8
:10C0B000034B04489A4208BF00207047024870476B
:10C0C000DD55AABB8208F0007108F00038B50D46B6
:10C0D0000446B0B1A0220021043000F041FD95B12A
:10C0E0000822294604F1640000F040FD082205F111
:10C0F000200104F1840000F039FD044B236000208E
:10C1000038BD0348FCE70348FAE700BFDD55AABB8A
:10C110007108F0008308F0002DE9F74305460E464C
:10C1200099461146FFF7C2FF0446002840F084807C
:10C13000002E00F08580002900F08480B9F1200FE6
:10C1400040F0828005F14404082205F104082046ED
:10C1500000F00CFD05F1240708223146404600F0AE
:10C1600005FD06F120010822384600F0FFFC02A977
:10C170004FF4807041F8049D00F0A4FA002865D1C6
:10C18000334A4FF480731360012193600823314ACE
:10C1900000F046FB0121084605232F4A00F040FB32
:10C1A0000823424601211C2000F03AFB08233A46AE
:10C1B0000121032000F034FB224608230121022044
:10C1C00000F02EFB0823254A01211A2000F028FB4D
:10C1D0000523234A01211B2000F022FB0823214ACA
:10C1E0000121142000F01CFB08231F4A0121152007
:10C1F00000F016FB082305F164020121162000F06F
:10C200000FFB082305F184020121172000F008FB31
:10C210000823164A01210B2000F002FB00F05CFB12
:10C220000446019800F0EAFA114B002C18BF1C4696
:10C23000A421284600F096FC204603B0BDE8F08318
:10C240000C4CF9E70C4CF7E70C4CF5E7084CEFE722
:10C2500090B00250D0DD0F0048DE0F0090DD0F00DF
:10C2600034DE0F00F4DD0F0014DE0F00B0DD0F0030
:10C270008408F0007608F0008008F0008108F000E3
:10C280002DE9F041069F044615461E46FFF71EFFA6
:10C2900038B93B46324629462046BDE8F041FFF713
:10C2A0003BBFBDE8F08100000C4BC2691A60826997
:10C2B00043F8042C426943F8082C026943F80C2C1B
:10C2C000C26843F8102C826843F8142C426843F883
:10C2D000182C026843F81C2C704700BF5CB6025053
:10C2E0000C4B1B68C3610C4B1B6883610B4B1B68B9
:10C2F00043610B4B1B6803610A4B1B68C3600A4B0D
:10C300001B688360094B1B684360094B1B68036013
:10C31000704700BF5CB6025058B6025054B6025087
:10C3200050B602504CB6025048B6025044B60250C5
:10C3300040B6025030B10268034B04489A4208BF2D
:10C340000020704702487047DD55AABB0202F0008A
:10C350000002F00038B5044668B1051D702128467A
:10C3600000F000FC28462022044900F0F7FB044BB3
:10C370002360002038BD0348FCE700BF6CDE0F00DF
:10C38000DD55AABB0002F0002DE9F043284B04461E
:10C390000E4615460FCB85B06F4687E80F002DB9C6
:10C3A0004FF00009484605B0BDE8F0832046FFF78E
:10C3B000C1FF81460028F5D1231D0193636AA3BB09
:10C3C000236F8BB1C3F14008A84528BFA84604F1EC
:10C3D000300031461844424600F0C0FB236F43440E
:10C3E00046442367A5EB0805226F402A06D104F1D5
:10C3F0003001384600F0C8FB0023236705F03F08F2
:10C4000035F03F0505D031462A46384600F0BCFBE2
:10C410002E44B8F1000FC3D04246314604F130003B
:10C4200000F09CFBC4F87080BCE7DFF80890B9E727
:10C430005CDE0F000C02F0002DE9FF41144B0446B6
:10C440000E460FCB6F4687E80F002046FFF772FFBE
:10C450008046B0B9CEB1636A251D01953BB9012371
:10C460006362226F04F13001384600F08DFB2B46E9
:10C47000043E243453F8042B12BAA34246F8042F86
:10C48000F8D1404604B0BDE8F081DFF80880F8E755
:10C490005CDE0F000502F000084B1B681B0EF02B42
:10C4A00008D1074B1A68074B9A4205D1064B00206A
:10C4B00018607047052070470620704728B9025061
:10C4C00024BA02500000E0200CBA0250002230B51D
:10C4D00049001346023840F6FC7502F1A05404F5F9
:10C4E0002C44A400904202F10102CABF23602560DF
:10C4F0005B181E2AF1D1044A13600B445360034BAE
:10C50000034A1A6030BD00BF78B0025084B00250B8
:10C5100020F80F0030B51E4B85B01A4619680091FF
:10C520000099CC07FAD500F1A05000F52C4080000E
:10C53000016813680193019BD807FAD5154B164C77
:10C540001868164D1F30202390FBF3F001380028A7
:10C5500010DA00230130400153B1A0F120014FF067
:10C560000042134204D1013888424FEA5202F8D106
:10C5700005B030BD13680393039BDB07FAD543185E
:10C5800023602B680293029B002BE3D10138DEE786
:10C59000B4B00250ACB00250E4B00250DCB0025073
:10C5A000F0B51D6885B001F01F040DB91F2C25D111
:10C5B000154D2E462F680197019FFF07FAD500F110
:10C5C000A05000F52C408000006835680395039D5D
:10C5D000ED07FAD50D4D00EB611028600C4800689E
:10C5E00002901F2C18BFC94302980FBF106001F0C2
:10C5F0001F0100FA01F11160002119601068430069
:10C60000C00F136005B0F0BDB4B00250E4B00250EA
:10C61000DCB002500C4B18603F3020F03F00890125
:10C62000403058609960D9601961596199611C3333
:10C630000648196082B002680192019AD207FAD5C1
:10C64000196002B0704700BF90B00250B4B0025001
:10C6500038B5A0F12003B3F5426F05462CD88F28DA
:10C6600026D800F1470300F16604DB064FEA5414B4
:10C6700000D0013464013F34A409013411B1A14256
:10C680001AD30C46E3004FF48050B0FBF3F020289F
:10C6900028BF202002B11060084B01221A602146F9
:10C6A000FFF714FF28462146FFF7B4FF002038BDEE
:10C6B00000F11F046409DDE70148F8E71CB80250E7
:10C6C0002221F0000A460021FFF7C2BFF0B5454B1A
:10C6D00089B01D461C680194019CE407FAD5424BC1
:10C6E000DFF80CE1DFF80CC113449B0000241A684A
:10C6F0000B181E2B88BFC0F11E011F320B185209E8
:10C700005343B3F5806F82BF4FF48061B1FBF2F108
:10C71000091A00F1A05000F52C402746A14233DC55
:10C720002B680493049BDB07FAD5304B1B68296800
:10C7300005910599CF07FAD52D4C2E49236000238A
:10C740001E46934203F1010040D120F00102294826
:10C75000194600268A423CD8296806910699CE07D8
:10C76000FAD525490968286807900798C007FAD5BF
:10C770002160204800210C468B422DD11D4900200C
:10C780009A422CD809B0F0BD2B680293029BDB07BC
:10C79000FAD503199B001B682E680396039EF607C3
:10C7A000FAD5CEF800300023934203F1010306D1FD
:10C7B000164623F00103B34204D80134AEE7CCF8A7
:10C7C0000070F1E7CCF800700136F4E70E60034624
:10C7D000B7E706600131BDE704600131CCE70860CE
:10C7E0000133CDE7B4B0025024AC00147CB0025049
:10C7F000D4B00250D8B0025078B0025008B540B161
:10C80000202801464FF0070228BF20210020FFF713
:10C810005DFF024B00221A6008BD00BF1CB8025029
:10C82000F0B5294D85B02C462E680096009EF6077F
:10C83000FAD500F1A05000F52C4080000568206872
:10C8400001900198C707FAD52048214F056002EBF7
:10C850008306B24229D15A1C1D4E22F00102002744
:10C860009A4227D823680293029BDE07FAD5194B18
:10C870000B449B001B681F335B099A4213D221684B
:10C8800003910399C907FAD5154400219B1A104A50
:10C89000056008468B4210D85A1C0D4922F001024F
:10C8A00000209A420CD805B0F0BD52F804CBC7F86E
:10C8B00000C0CEE737600133D2E710600131E9E70D
:10C8C00008600133EDE700BFB4B00250D4B00250AD
:10C8D000D8B0025024AC00142DE9F041814B1D6802
:10C8E00098682033A0B01E461A680192019AD707B3
:10C8F000FAD57D4B7D4A1A6032680292029AD407BB
:10C90000FAD57B4A1A607B4A144611680391039951
:10C91000C907FAD5784A1168C1F3402137680497EE
:10C92000049FFF07FAD5754F1F6027680597059F7D
:10C93000FF07FAD51768002900F0CF80B90540F14C
:10C94000CC80316806910699CF07FAD56C491960F9
:10C95000216807910799C907FAD51168C1F34021E9
:10C9600037680897089FFF07FAD5664F1F6027684A
:10C970000997099FFF07FAD51268002900F0AF80D8
:10C98000910540F1AC8032680A920A9AD207FAD532
:10C99000564A1A6032680B920B9AD707FAD55A4A50
:10C9A0001A6031680C910C99CC07FAD55749196077
:10C9B00031680D910D99C907FAD55549196031684B
:10C9C0000E910E99CF07FAD55249196031680F912F
:10C9D0000F99CC07FAD550491960504B1E4619687B
:10C9E00010911099C907FAD53F4C4D4B236033681D
:10C9F0001193119BDB07FAD54A4B236033681293DE
:10CA0000129BDF07FAD5484B23603A4B98461968CA
:10CA100013911399C907FAD5324F386033681493CC
:10CA2000149BDB07FAD5226033681593159BD80752
:10CA3000FAD53E4B236033681693169BD907FAD577
:10CA40003B4B236033681793179BDA07FAD5394BB2
:10CA5000236033681893189BDB07FAD5364B2360A5
:10CA600033681993199BD807FAD5344B2360336880
:10CA70001A931A9BD907FAD5314B236033681B935D
:10CA80001B9BDA07FAD52F4B236000F033FC08BB61
:10CA9000D8F800301C931C9BDB07F9D53D60336848
:10CAA0001D931D9BD907FAD5274B236033681E932E
:10CAB0001E9BDA07FAD5254B2360D8F800301F9368
:10CAC0001F9BDB07F9D50C4B1B6813F4805F204BD1
:10CAD00008BF184620B0BDE8F0811E48FAE71E489E
:10CAE000F8E700BF90B0025080B002500010025131
:10CAF000C01F7229B4B0025088B00250C0CF0129C3
:10CB0000C01F0E29C03F002940010249003184A8FE
:10CB100000001649400108A180440888B0B00250C6
:10CB2000C044708880077A41C0077E4100006A498E
:10CB30008006164940006E49000200210082202133
:10CB4000408220218082242140A161A100C861513E
:10CB50000308F1000108F1000208F10000F07CBDBB
:10CB600000F014BE0A46002100F010BE01EB820264
:10CB700004388A4201D10020704752F8043D1BBAA4
:10CB800040F8043FF5E700002DE9F74F314B4468CA
:10CB90008046924699461A68002AFCD12E4B9B4645
:10CBA0001A68002AFCD14FF0FF30019100F094FC8C
:10CBB000802000F097FC294D294A2A4F2A4E012354
:10CBC00007202B60A2F59E72C2F83C011360636AD5
:10CBD0003B60A36A3360D8F8003042F8043CD8F8D0
:10CBE0000830204698470199D9F80030002BFBD136
:10CBF000BAF1000F20D11D4B04221A60D9F8003081
:10CC0000002BFBD1DBF800A0BAF1000FFAD1D8F865
:10CC10000C30204698473B6863623368A362144B2C
:10CC2000C3F800A0C3F844A1D9F80030002BFBD111
:10CC30002B6003B0BDE8F08F236A012B04BF0C4AC0
:10CC400013600C4B40201960C3F804A000F050FCA6
:10CC5000D4E700BF10B9025020BC025018B80250EF
:10CC600000B90250CCB70250D0B70250C8B702503A
:10CC700084B6025028BC025010B5544B98B01946E7
:10CC80001A680192019AD207FAD5514B514A1A609B
:10CC90000A680292029AD407FAD54F4A1A600A68C3
:10CCA0000392039AD007FAD54C4818600A68049298
:10CCB000049AD207FAD54A4A1A600A680592059A78
:10CCC000D407FAD5474A1A600A680692069AD2072C
:10CCD000FAD5454A1A600A680792079AD407FAD526
:10CCE000424A1A600A680892089AD207FAD5404A5E
:10CCF0001A600A680992099AD407FAD53D4A1A605F
:10CD00000A680A920A9AD207FAD53B4A1A600A6858
:10CD10000B920B9AD407FAD5384A1A600A680C921B
:10CD20000C9AD207FAD5364A1A600A680D920D9A03
:10CD3000D407FAD5334A1A600A680E920E9AD207BF
:10CD4000FAD5314A1A600A680F920F9AD407FAD5B9
:10CD50002E4A1A600A681092109AD207FAD52C4A05
:10CD60001A601A4B19461C681194119CE407FAD5F5
:10CD7000174B1860086812901298C407FAD51A6009
:10CD80000A681392139AD007FAD5124A1A600A68F1
:10CD90001492149AD207FAD51E4A1A600A6815929C
:10CDA000159AD407FAD51C4A1A600A681692169A80
:10CDB000D007FAD5194A1A600A681792179AD2074B
:10CDC000FAD5174A1A6018B010BD00BFB0B00250B3
:10CDD00080B0025000936521000431904096659028
:10CDE0000083612100C3302100C364900081619001
:10CDF00000461021008111210041442100C3202957
:10CE00000C4610C80086312100C3602140C128298A
:10CE1000409665210013319040962529594614C843
:10CE20004004324910B5494B94B019461A68009233
:10CE3000009AD207FAD5464B464A1A600A68019210
:10CE4000019AD407FAD5444A1A600A680292029AF3
:10CE5000D007FAD5414818600A680392039AD207AE
:10CE6000FAD53F4A1A600A680492049AD407FAD5A0
:10CE70003C4A1A600A680592059AD207FAD53A4ADE
:10CE80001A600A680692069AD407FAD5374A1A60D9
:10CE90000A680792079AD207FAD5354A1A600A68D3
:10CEA0000892089AD407FAD5324A1A600A68099299
:10CEB000099AD207FAD5304A1A600A680A920A9A81
:10CEC000D407FAD52D4A1A600A680B920B9AD2073A
:10CED000FAD52B4A1A600A680C920C9AD407FAD534
:10CEE000284A1A600A680D920D9AD207FAD5264A86
:10CEF0001A600A680E920E9AD407FAD5234A1A606D
:10CF00000A680F920F9AD207FAD5214A1A600F4B7E
:10CF100019461C681094109CE407FAD50C4B186055
:10CF2000086811901198C407FAD51A600A6812921D
:10CF3000129AD007FAD5174A1A600A681392139A00
:10CF4000D207FAD5144A1A6014B010BDB0B002501E
:10CF500080B0025080906521000409904096659051
:10CF60008080612180200821802064900081619070
:10CF700000461021008111210041442180202029F8
:10CF8000024610C8008609218020602140212829FE
:10CF90004096652140962529594614C810B5504B36
:10CFA00096B01C461A680192019AD207FAD54D4BE9
:10CFB0004D4A1A6022680292029AD207FAD54B4A69
:10CFC0001A604B4A42EA804022680392039AD207D1
:10CFD000FAD5186022680492049AD007FAD5454A17
:10CFE0001A60A2F5800242EA814122680592059A00
:10CFF000D207FAD5196022680692069AD007FAD5A8
:10D000003D4A1A6022680792079AD107FAD53B4A2F
:10D010001A6022680892089AD207FAD5384A1A602C
:10D0200022680992099AD007FAD5364A1A6022680E
:10D030000A920A9AD107FAD5334A1A6022680B92EB
:10D040000B9AD207FAD5314A1A6022680C920C9AD0
:10D05000D007FAD52E4A1A6022680D920D9AD10790
:10D06000FAD52C4A1A6022680E920E9AD207FAD587
:10D07000294A1A6022680F920F9AD007FAD5274AD8
:10D080001A60216810911099C907FAD51A60144BDB
:10D090001A46196811911199C807FAD5114B204900
:10D0A0001960116812911299C907FAD51D491960C2
:10D0B000116813911399CC07FAD50B4919601168BF
:10D0C00014911499C807FAD5174919601168159178
:10D0D0001599C907FAD5154A1A6016B010BD00BFD8
:10D0E000B0B0025080B0025040044190008629291F
:10D0F000D81001C8401441904014212940146521E2
:10D100000034409000310C90C0400C90C030202979
:10D1100040960D9000416090031645C8008611218D
:10D1200000416021594644C84014459040142D9058
:10D1300070B5264888B0054604680094009CE60750
:10D14000FAD52348234C0460234C44EA83432C68DB
:10D150000194019CE407FAD50360930143EA8242FB
:10D1600042F0104444F4C0442B680293029BDE0753
:10D17000FAD504602B680393039BDB07FAD5174BA2
:10D1800003608B0143EA814141F0104343F4C04303
:10D190002E680496049EF607FAD503602B68059363
:10D1A000059BDE07FAD5046041F058412B680693D1
:10D1B000069BDC07FAD5016042F058422B680793C2
:10D1C000079BDB07FAD5026008B070BDB0B0025013
:10D1D00080B00250C02102298071009880611890AF
:10D1E000354B8EB019461A680092009AD207FAD5CC
:10D1F000324B334A1A600A680192019AD007FAD575
:10D20000304A1A600A680292029AD207FAD52E4A68
:10D210001A600A680392039AD007FAD52B4A1A605B
:10D220000A680492049AD207FAD5294A1A600A6851
:10D230000592059AD007FAD5264A1A600A6806921E
:10D24000069AD207FAD5244A1A600A680792079A02
:10D25000D007FAD5214A1A600A680892089AD207BC
:10D26000FAD51F4A1A600A680992099AD007FAD5B6
:10D270001C4A1A600A680A920A9AD207FAD51A4A10
:10D280001A6008680B900B98C007FAD51A600A68F4
:10D290000C920C9AD007FAD5144A1A600A680D92BB
:10D2A0000D9AD207FAD5124A1A600E210D230F22C9
:10D2B00000200EB0FFF73CBFB0B0025080B002506B
:10D2C0008043012940633921807001298020542145
:10D2D00000D13490C0403490C0302029C0530D900C
:10D2E00000413890832308C880E310210041382191
:10D2F000CF4308C82DE9F041012392B0CDE90333B3
:10D30000624B1D461A680592059AD207FAD5604C01
:10D31000604B2360604B19461A680692069AD7073D
:10D32000FAD55E4B1A68D60400F1A8802A680792E5
:10D33000079AD007FAD55A4A22600A680892089AD2
:10D34000D207FAD51E68C6F30036002E40F098804A
:10D350001220FFF7DFF807461320FFF7DBF88742BC
:10D360008CBF12201320FFF7D5F8471EFFF738FFB8
:10D3700003AB01AA39461220FFF712F904AB80462D
:10D3800002AA39461320FFF70BF900EB48000228E8
:10D3900032D003283ED0012874D12B680993099B11
:10D3A000DB07FAD53F4B23602B680A930A9BD8070B
:10D3B000FAD53D4B23602B680F930F9BD907FAD505
:10D3C0003A4B23602B681093109BDA07FAD5384B41
:10D3D00023602B681193119BDB07FAD5354B236033
:10D3E000013F25D51023192218210020FFF7A0FEA8
:10D3F000304612B0BDE8F0812B680B930B9BD90728
:10D40000FAD52D4B23602B680C930C9BDA07FAD5C9
:10D410002A4BCFE72B680D930D9BDB07FAD5284BE2
:10D4200023602B680E930E9BD807FAD5254BC1E7D6
:10D4300003AB01AA39461220FFF7B2F804AB044649
:10D4400002AA39461320FFF7ABF810EB440402D1CF
:10D45000FFF712FCC4E7FFF7E5FC022C08D0032C11
:10D4600009D0012C10D117211620FFF797FDB7E73F
:10D4700015211420F9E70F210E20F6E7124EB7E729
:10D48000124EB5E7124EB3E7124EB1E7B0B00250FC
:10D4900080B0025000084A51B4B0025088B0025027
:10D4A00000084E5100065A4940065E4900044241B8
:10D4B0000014424940042E4900065249400656498C
:10D4C00000063A4940063E490608F1000708F10007
:10D4D0000408F1000508F100014B1860704700BF17
:10D4E00008BA0250014B1860704700BF04BA0250DE
:10D4F000094BC2431A60043B82B01B680193074B7F
:10D50000019A024204D0064A1060186802B07047BF
:10D5100020BF1A680192F3E704BA0250648C00201D
:10D5200008BA0250054B4FF0FF321A6053F8042C32
:10D53000034B1A601A68034B1A60704704BA025012
:10D54000648C002008BA0250002301461A4618468F
:10D5500000F0E4B908B5074B044613B1002100F010
:10D560002DFA054B1868836A03B19847204600F0EE
:10D5700073FA00BFBDD90F008CDE0F0038B50A4C1E
:10D580000A4D641BA4100AD004F18043013B05EB53
:10D590008305013C55F804399847002CF9D1BDE8C2
:10D5A000384000F061BA00BF0C5A0020085A002031
:10D5B00070B50D4E0D4D761BB61006D0002401340B
:10D5C00055F8043B9847A642F9D1094E094D761B00
:10D5D00000F044FAB61006D00024013455F8043B9C
:10D5E0009847A642F9D170BD045A0020045A002081
:10D5F000085A0020045A0020032A70B412D940EAC5
:10D600000105AD0704460B4620D11946204653F8C4
:10D61000045B54F8046BAE4218D1043A032A204646
:10D620001946F2D8541E72B103780A789A4208BF9C
:10D63000241806D00CE010F8013F11F8012F934296
:10D6400006D1A042F7D1002070BC7047541EEBE712
:10D65000981A70BC704700BF844641EA000313F07B
:10D6600003036DD1403A41D351F8043B40F8043BE9
:10D6700051F8043B40F8043B51F8043B40F8043BAC
:10D6800051F8043B40F8043B51F8043B40F8043B9C
:10D6900051F8043B40F8043B51F8043B40F8043B8C
:10D6A00051F8043B40F8043B51F8043B40F8043B7C
:10D6B00051F8043B40F8043B51F8043B40F8043B6C
:10D6C00051F8043B40F8043B51F8043B40F8043B5C
:10D6D00051F8043B40F8043B51F8043B40F8043B4C
:10D6E00051F8043B40F8043B403ABDD2303211D3EC
:10D6F00051F8043B40F8043B51F8043B40F8043B2C
:10D7000051F8043B40F8043B51F8043B40F8043B1B
:10D71000103AEDD20C3205D351F8043B40F8043BEB
:10D72000043AF9D2043208D0D2071CBF11F8013BE9
:10D7300000F8013B01D30B8803806046704700BFAF
:10D74000082A13D38B078DD010F003038AD0C3F1BE
:10D750000403D21ADB071CBF11F8013B00F8013BA0
:10D7600080D331F8023B20F8023B7BE7043AD9D35F
:10D77000013A11F8013B00F8013BF9D20B78037034
:10D780004B7843708B78837060467047F0B486079F
:10D7900046D0541E002A3CD0CAB2034602E014F11F
:10D7A000FF3436D303F8012B9D07F8D1032C29D978
:10D7B000CDB245EA05250F2C45EA054533D9A4F13C
:10D7C0001006360903F1200707EB061703F11002D4
:10D7D00042E9045542E902551032BA42F8D1721CAE
